{
  "_format": "hh-sol-artifact-1",
  "contractName": "NFTMarketplace",
  "sourceName": "contracts/NFTMarketplace.sol",
  "abi": [
    {
      "inputs": [],
      "stateMutability": "nonpayable",
      "type": "constructor"
    },
    {
      "anonymous": false,
      "inputs": [
        {
          "indexed": true,
          "internalType": "address",
          "name": "owner",
          "type": "address"
        },
        {
          "indexed": true,
          "internalType": "address",
          "name": "approved",
          "type": "address"
        },
        {
          "indexed": true,
          "internalType": "uint256",
          "name": "tokenId",
          "type": "uint256"
        }
      ],
      "name": "Approval",
      "type": "event"
    },
    {
      "anonymous": false,
      "inputs": [
        {
          "indexed": true,
          "internalType": "address",
          "name": "owner",
          "type": "address"
        },
        {
          "indexed": true,
          "internalType": "address",
          "name": "operator",
          "type": "address"
        },
        {
          "indexed": false,
          "internalType": "bool",
          "name": "approved",
          "type": "bool"
        }
      ],
      "name": "ApprovalForAll",
      "type": "event"
    },
    {
      "anonymous": false,
      "inputs": [
        {
          "indexed": true,
          "internalType": "uint256",
          "name": "tokenId",
          "type": "uint256"
        },
        {
          "indexed": false,
          "internalType": "address",
          "name": "seller",
          "type": "address"
        },
        {
          "indexed": false,
          "internalType": "address",
          "name": "owner",
          "type": "address"
        },
        {
          "indexed": false,
          "internalType": "uint256",
          "name": "price",
          "type": "uint256"
        },
        {
          "indexed": false,
          "internalType": "bool",
          "name": "sold",
          "type": "bool"
        }
      ],
      "name": "MarketItemCreated",
      "type": "event"
    },
    {
      "anonymous": false,
      "inputs": [
        {
          "indexed": true,
          "internalType": "uint256",
          "name": "tokenId",
          "type": "uint256"
        },
        {
          "indexed": false,
          "internalType": "address",
          "name": "seller",
          "type": "address"
        },
        {
          "indexed": false,
          "internalType": "address",
          "name": "owner",
          "type": "address"
        },
        {
          "indexed": false,
          "internalType": "uint256",
          "name": "price",
          "type": "uint256"
        }
      ],
      "name": "MarketItemResold",
      "type": "event"
    },
    {
      "anonymous": false,
      "inputs": [
        {
          "indexed": true,
          "internalType": "uint256",
          "name": "tokenId",
          "type": "uint256"
        },
        {
          "indexed": false,
          "internalType": "address",
          "name": "seller",
          "type": "address"
        },
        {
          "indexed": false,
          "internalType": "address",
          "name": "owner",
          "type": "address"
        },
        {
          "indexed": false,
          "internalType": "uint256",
          "name": "price",
          "type": "uint256"
        }
      ],
      "name": "MarketItemSold",
      "type": "event"
    },
    {
      "anonymous": false,
      "inputs": [
        {
          "indexed": true,
          "internalType": "address",
          "name": "from",
          "type": "address"
        },
        {
          "indexed": true,
          "internalType": "address",
          "name": "to",
          "type": "address"
        },
        {
          "indexed": true,
          "internalType": "uint256",
          "name": "tokenId",
          "type": "uint256"
        }
      ],
      "name": "Transfer",
      "type": "event"
    },
    {
      "inputs": [
        {
          "internalType": "address",
          "name": "to",
          "type": "address"
        },
        {
          "internalType": "uint256",
          "name": "tokenId",
          "type": "uint256"
        }
      ],
      "name": "approve",
      "outputs": [],
      "stateMutability": "nonpayable",
      "type": "function"
    },
    {
      "inputs": [
        {
          "internalType": "address",
          "name": "owner",
          "type": "address"
        }
      ],
      "name": "balanceOf",
      "outputs": [
        {
          "internalType": "uint256",
          "name": "",
          "type": "uint256"
        }
      ],
      "stateMutability": "view",
      "type": "function"
    },
    {
      "inputs": [
        {
          "internalType": "uint256",
          "name": "tokenId",
          "type": "uint256"
        }
      ],
      "name": "createMarketSale",
      "outputs": [],
      "stateMutability": "payable",
      "type": "function"
    },
    {
      "inputs": [
        {
          "internalType": "string",
          "name": "tokenURI",
          "type": "string"
        },
        {
          "internalType": "uint256",
          "name": "price",
          "type": "uint256"
        }
      ],
      "name": "createToken",
      "outputs": [
        {
          "internalType": "uint256",
          "name": "",
          "type": "uint256"
        }
      ],
      "stateMutability": "nonpayable",
      "type": "function"
    },
    {
      "inputs": [],
      "name": "fetchItemsListed",
      "outputs": [
        {
          "components": [
            {
              "internalType": "uint256",
              "name": "tokenId",
              "type": "uint256"
            },
            {
              "internalType": "address payable",
              "name": "seller",
              "type": "address"
            },
            {
              "internalType": "address payable",
              "name": "owner",
              "type": "address"
            },
            {
              "internalType": "uint256",
              "name": "price",
              "type": "uint256"
            },
            {
              "internalType": "bool",
              "name": "sold",
              "type": "bool"
            }
          ],
          "internalType": "struct NFTMarketplace.MarketItem[]",
          "name": "",
          "type": "tuple[]"
        }
      ],
      "stateMutability": "view",
      "type": "function"
    },
    {
      "inputs": [],
      "name": "fetchMarketItems",
      "outputs": [
        {
          "components": [
            {
              "internalType": "uint256",
              "name": "tokenId",
              "type": "uint256"
            },
            {
              "internalType": "address payable",
              "name": "seller",
              "type": "address"
            },
            {
              "internalType": "address payable",
              "name": "owner",
              "type": "address"
            },
            {
              "internalType": "uint256",
              "name": "price",
              "type": "uint256"
            },
            {
              "internalType": "bool",
              "name": "sold",
              "type": "bool"
            }
          ],
          "internalType": "struct NFTMarketplace.MarketItem[]",
          "name": "",
          "type": "tuple[]"
        }
      ],
      "stateMutability": "view",
      "type": "function"
    },
    {
      "inputs": [],
      "name": "fetchMyNFTs",
      "outputs": [
        {
          "components": [
            {
              "internalType": "uint256",
              "name": "tokenId",
              "type": "uint256"
            },
            {
              "internalType": "address payable",
              "name": "seller",
              "type": "address"
            },
            {
              "internalType": "address payable",
              "name": "owner",
              "type": "address"
            },
            {
              "internalType": "uint256",
              "name": "price",
              "type": "uint256"
            },
            {
              "internalType": "bool",
              "name": "sold",
              "type": "bool"
            }
          ],
          "internalType": "struct NFTMarketplace.MarketItem[]",
          "name": "",
          "type": "tuple[]"
        }
      ],
      "stateMutability": "view",
      "type": "function"
    },
    {
      "inputs": [
        {
          "internalType": "uint256",
          "name": "tokenId",
          "type": "uint256"
        }
      ],
      "name": "getApproved",
      "outputs": [
        {
          "internalType": "address",
          "name": "",
          "type": "address"
        }
      ],
      "stateMutability": "view",
      "type": "function"
    },
    {
      "inputs": [],
      "name": "getListingPrice",
      "outputs": [
        {
          "internalType": "uint256",
          "name": "",
          "type": "uint256"
        }
      ],
      "stateMutability": "view",
      "type": "function"
    },
    {
      "inputs": [
        {
          "internalType": "address",
          "name": "owner",
          "type": "address"
        },
        {
          "internalType": "address",
          "name": "operator",
          "type": "address"
        }
      ],
      "name": "isApprovedForAll",
      "outputs": [
        {
          "internalType": "bool",
          "name": "",
          "type": "bool"
        }
      ],
      "stateMutability": "view",
      "type": "function"
    },
    {
      "inputs": [],
      "name": "listingPrice",
      "outputs": [
        {
          "internalType": "uint256",
          "name": "",
          "type": "uint256"
        }
      ],
      "stateMutability": "view",
      "type": "function"
    },
    {
      "inputs": [],
      "name": "name",
      "outputs": [
        {
          "internalType": "string",
          "name": "",
          "type": "string"
        }
      ],
      "stateMutability": "view",
      "type": "function"
    },
    {
      "inputs": [],
      "name": "owner",
      "outputs": [
        {
          "internalType": "address payable",
          "name": "",
          "type": "address"
        }
      ],
      "stateMutability": "view",
      "type": "function"
    },
    {
      "inputs": [
        {
          "internalType": "uint256",
          "name": "tokenId",
          "type": "uint256"
        }
      ],
      "name": "ownerOf",
      "outputs": [
        {
          "internalType": "address",
          "name": "",
          "type": "address"
        }
      ],
      "stateMutability": "view",
      "type": "function"
    },
    {
      "inputs": [
        {
          "internalType": "uint256",
          "name": "tokenId",
          "type": "uint256"
        },
        {
          "internalType": "uint256",
          "name": "price",
          "type": "uint256"
        }
      ],
      "name": "resellToken",
      "outputs": [],
      "stateMutability": "payable",
      "type": "function"
    },
    {
      "inputs": [
        {
          "internalType": "address",
          "name": "from",
          "type": "address"
        },
        {
          "internalType": "address",
          "name": "to",
          "type": "address"
        },
        {
          "internalType": "uint256",
          "name": "tokenId",
          "type": "uint256"
        }
      ],
      "name": "safeTransferFrom",
      "outputs": [],
      "stateMutability": "nonpayable",
      "type": "function"
    },
    {
      "inputs": [
        {
          "internalType": "address",
          "name": "from",
          "type": "address"
        },
        {
          "internalType": "address",
          "name": "to",
          "type": "address"
        },
        {
          "internalType": "uint256",
          "name": "tokenId",
          "type": "uint256"
        },
        {
          "internalType": "bytes",
          "name": "data",
          "type": "bytes"
        }
      ],
      "name": "safeTransferFrom",
      "outputs": [],
      "stateMutability": "nonpayable",
      "type": "function"
    },
    {
      "inputs": [
        {
          "internalType": "address",
          "name": "operator",
          "type": "address"
        },
        {
          "internalType": "bool",
          "name": "approved",
          "type": "bool"
        }
      ],
      "name": "setApprovalForAll",
      "outputs": [],
      "stateMutability": "nonpayable",
      "type": "function"
    },
    {
      "inputs": [
        {
          "internalType": "bytes4",
          "name": "interfaceId",
          "type": "bytes4"
        }
      ],
      "name": "supportsInterface",
      "outputs": [
        {
          "internalType": "bool",
          "name": "",
          "type": "bool"
        }
      ],
      "stateMutability": "view",
      "type": "function"
    },
    {
      "inputs": [],
      "name": "symbol",
      "outputs": [
        {
          "internalType": "string",
          "name": "",
          "type": "string"
        }
      ],
      "stateMutability": "view",
      "type": "function"
    },
    {
      "inputs": [
        {
          "internalType": "uint256",
          "name": "tokenId",
          "type": "uint256"
        }
      ],
      "name": "tokenURI",
      "outputs": [
        {
          "internalType": "string",
          "name": "",
          "type": "string"
        }
      ],
      "stateMutability": "view",
      "type": "function"
    },
    {
      "inputs": [
        {
          "internalType": "address",
          "name": "from",
          "type": "address"
        },
        {
          "internalType": "address",
          "name": "to",
          "type": "address"
        },
        {
          "internalType": "uint256",
          "name": "tokenId",
          "type": "uint256"
        }
      ],
      "name": "transferFrom",
      "outputs": [],
      "stateMutability": "nonpayable",
      "type": "function"
    },
    {
      "inputs": [
        {
          "internalType": "uint256",
          "name": "_listingPrice",
          "type": "uint256"
        }
      ],
      "name": "updateListingPrice",
      "outputs": [],
      "stateMutability": "nonpayable",
      "type": "function"
    }
  ],
  "bytecode": "0x60806040526608e1bc9bf040006009553480156200001c57600080fd5b506040518060400160405280600e81526020017f4379636c6f6e6520546f6b656e730000000000000000000000000000000000008152506040518060400160405280600381526020017f43544e000000000000000000000000000000000000000000000000000000000081525081600090816200009a919062000370565b508060019081620000ac919062000370565b50505033600a60006101000a81548173ffffffffffffffffffffffffffffffffffffffff021916908373ffffffffffffffffffffffffffffffffffffffff16021790555062000457565b600081519050919050565b7f4e487b7100000000000000000000000000000000000000000000000000000000600052604160045260246000fd5b7f4e487b7100000000000000000000000000000000000000000000000000000000600052602260045260246000fd5b600060028204905060018216806200017857607f821691505b6020821081036200018e576200018d62000130565b5b50919050565b60008190508160005260206000209050919050565b60006020601f8301049050919050565b600082821b905092915050565b600060088302620001f87fffffffffffffffffffffffffffffffffffffffffffffffffffffffffffffffff82620001b9565b620002048683620001b9565b95508019841693508086168417925050509392505050565b6000819050919050565b6000819050919050565b6000620002516200024b62000245846200021c565b62000226565b6200021c565b9050919050565b6000819050919050565b6200026d8362000230565b620002856200027c8262000258565b848454620001c6565b825550505050565b600090565b6200029c6200028d565b620002a981848462000262565b505050565b5b81811015620002d157620002c560008262000292565b600181019050620002af565b5050565b601f8211156200032057620002ea8162000194565b620002f584620001a9565b8101602085101562000305578190505b6200031d6200031485620001a9565b830182620002ae565b50505b505050565b600082821c905092915050565b6000620003456000198460080262000325565b1980831691505092915050565b600062000360838362000332565b9150826002028217905092915050565b6200037b82620000f6565b67ffffffffffffffff81111562000397576200039662000101565b5b620003a382546200015f565b620003b0828285620002d5565b600060209050601f831160018114620003e85760008415620003d3578287015190505b620003df858262000352565b8655506200044f565b601f198416620003f88662000194565b60005b828110156200042257848901518255600182019150602085019450602081019050620003fb565b868310156200044257848901516200043e601f89168262000332565b8355505b6001600288020188555050505b505050505050565b6144ad80620004676000396000f3fe6080604052600436106101405760003560e01c806370a08231116100b6578063b88d4fde1161006f578063b88d4fde14610470578063be9af53614610499578063c78f19f9146104b5578063c87b56dd146104e0578063e219fc751461051d578063e985e9c51461053957610140565b806370a082311461034e57806372b3b6201461038b5780638da5cb5b146103c857806395d89b41146103f3578063a22cb4651461041e578063ae677aa31461044757610140565b806312e855851161010857806312e855851461023e578063202e37401461026957806323b872dd1461029457806342842e0e146102bd57806345f8fa80146102e65780636352211e1461031157610140565b806301ffc9a71461014557806306fdde0314610182578063081812fc146101ad578063095ea7b3146101ea5780630f08efe014610213575b600080fd5b34801561015157600080fd5b5061016c60048036038101906101679190612c6a565b610576565b6040516101799190612cb2565b60405180910390f35b34801561018e57600080fd5b50610197610658565b6040516101a49190612d5d565b60405180910390f35b3480156101b957600080fd5b506101d460048036038101906101cf9190612db5565b6106ea565b6040516101e19190612e23565b60405180910390f35b3480156101f657600080fd5b50610211600480360381019061020c9190612e6a565b610730565b005b34801561021f57600080fd5b50610228610847565b6040516102359190613000565b60405180910390f35b34801561024a57600080fd5b50610253610a87565b6040516102609190613031565b60405180910390f35b34801561027557600080fd5b5061027e610a91565b60405161028b9190613000565b60405180910390f35b3480156102a057600080fd5b506102bb60048036038101906102b6919061304c565b610d53565b005b3480156102c957600080fd5b506102e460048036038101906102df919061304c565b610db3565b005b3480156102f257600080fd5b506102fb610dd3565b6040516103089190613000565b60405180910390f35b34801561031d57600080fd5b5061033860048036038101906103339190612db5565b611095565b6040516103459190612e23565b60405180910390f35b34801561035a57600080fd5b506103756004803603810190610370919061309f565b61111b565b6040516103829190613031565b60405180910390f35b34801561039757600080fd5b506103b260048036038101906103ad9190613201565b6111d2565b6040516103bf9190613031565b60405180910390f35b3480156103d457600080fd5b506103dd611379565b6040516103ea919061326c565b60405180910390f35b3480156103ff57600080fd5b5061040861139f565b6040516104159190612d5d565b60405180910390f35b34801561042a57600080fd5b50610445600480360381019061044091906132b3565b611431565b005b34801561045357600080fd5b5061046e60048036038101906104699190612db5565b611447565b005b34801561047c57600080fd5b5061049760048036038101906104929190613394565b6114e1565b005b6104b360048036038101906104ae9190612db5565b611543565b005b3480156104c157600080fd5b506104ca6118ab565b6040516104d79190613031565b60405180910390f35b3480156104ec57600080fd5b5061050760048036038101906105029190612db5565b6118b1565b6040516105149190612d5d565b60405180910390f35b61053760048036038101906105329190613417565b6119c3565b005b34801561054557600080fd5b50610560600480360381019061055b9190613457565b611b9f565b60405161056d9190612cb2565b60405180910390f35b60007f80ac58cd000000000000000000000000000000000000000000000000000000007bffffffffffffffffffffffffffffffffffffffffffffffffffffffff1916827bffffffffffffffffffffffffffffffffffffffffffffffffffffffff1916148061064157507f5b5e139f000000000000000000000000000000000000000000000000000000007bffffffffffffffffffffffffffffffffffffffffffffffffffffffff1916827bffffffffffffffffffffffffffffffffffffffffffffffffffffffff1916145b80610651575061065082611c33565b5b9050919050565b606060008054610667906134c6565b80601f0160208091040260200160405190810160405280929190818152602001828054610693906134c6565b80156106e05780601f106106b5576101008083540402835291602001916106e0565b820191906000526020600020905b8154815290600101906020018083116106c357829003601f168201915b5050505050905090565b60006106f582611c9d565b6004600083815260200190815260200160002060009054906101000a900473ffffffffffffffffffffffffffffffffffffffff169050919050565b600061073b82611095565b90508073ffffffffffffffffffffffffffffffffffffffff168373ffffffffffffffffffffffffffffffffffffffff16036107ab576040517f08c379a00000000000000000000000000000000000000000000000000000000081526004016107a290613569565b60405180910390fd5b8073ffffffffffffffffffffffffffffffffffffffff166107ca611ce8565b73ffffffffffffffffffffffffffffffffffffffff1614806107f957506107f8816107f3611ce8565b611b9f565b5b610838576040517f08c379a000000000000000000000000000000000000000000000000000000000815260040161082f906135fb565b60405180910390fd5b6108428383611cf0565b505050565b606060006108556008611da9565b61085f6007611da9565b610869919061364a565b905060008167ffffffffffffffff811115610887576108866130d6565b5b6040519080825280602002602001820160405280156108c057816020015b6108ad612ba1565b8152602001906001900390816108a55790505b509050600080600190505b6108d56007611da9565b8111610a7d573073ffffffffffffffffffffffffffffffffffffffff16600b600083815260200190815260200160002060020160009054906101000a900473ffffffffffffffffffffffffffffffffffffffff1673ffffffffffffffffffffffffffffffffffffffff1603610a6a57600b60008281526020019081526020016000206040518060a0016040529081600082015481526020016001820160009054906101000a900473ffffffffffffffffffffffffffffffffffffffff1673ffffffffffffffffffffffffffffffffffffffff1673ffffffffffffffffffffffffffffffffffffffff1681526020016002820160009054906101000a900473ffffffffffffffffffffffffffffffffffffffff1673ffffffffffffffffffffffffffffffffffffffff1673ffffffffffffffffffffffffffffffffffffffff168152602001600382015481526020016004820160009054906101000a900460ff161515151581525050838381518110610a5057610a4f61367e565b5b60200260200101819052508180610a66906136ad565b9250505b8080610a75906136ad565b9150506108cb565b5081935050505090565b6000600954905090565b6060600080600190505b610aa56007611da9565b8111610b36573373ffffffffffffffffffffffffffffffffffffffff16600b600083815260200190815260200160002060020160009054906101000a900473ffffffffffffffffffffffffffffffffffffffff1673ffffffffffffffffffffffffffffffffffffffff1603610b23578180610b1f906136ad565b9250505b8080610b2e906136ad565b915050610a9b565b5060008167ffffffffffffffff811115610b5357610b526130d6565b5b604051908082528060200260200182016040528015610b8c57816020015b610b79612ba1565b815260200190600190039081610b715790505b509050600080600190505b610ba16007611da9565b8111610d49573373ffffffffffffffffffffffffffffffffffffffff16600b600083815260200190815260200160002060020160009054906101000a900473ffffffffffffffffffffffffffffffffffffffff1673ffffffffffffffffffffffffffffffffffffffff1603610d3657600b60008281526020019081526020016000206040518060a0016040529081600082015481526020016001820160009054906101000a900473ffffffffffffffffffffffffffffffffffffffff1673ffffffffffffffffffffffffffffffffffffffff1673ffffffffffffffffffffffffffffffffffffffff1681526020016002820160009054906101000a900473ffffffffffffffffffffffffffffffffffffffff1673ffffffffffffffffffffffffffffffffffffffff1673ffffffffffffffffffffffffffffffffffffffff168152602001600382015481526020016004820160009054906101000a900460ff161515151581525050838381518110610d1c57610d1b61367e565b5b60200260200101819052508180610d32906136ad565b9250505b8080610d41906136ad565b915050610b97565b5081935050505090565b610d64610d5e611ce8565b82611db7565b610da3576040517f08c379a0000000000000000000000000000000000000000000000000000000008152600401610d9a90613767565b60405180910390fd5b610dae838383611e4c565b505050565b610dce838383604051806020016040528060008152506114e1565b505050565b6060600080600190505b610de76007611da9565b8111610e78573373ffffffffffffffffffffffffffffffffffffffff16600b600083815260200190815260200160002060010160009054906101000a900473ffffffffffffffffffffffffffffffffffffffff1673ffffffffffffffffffffffffffffffffffffffff1603610e65578180610e61906136ad565b9250505b8080610e70906136ad565b915050610ddd565b5060008167ffffffffffffffff811115610e9557610e946130d6565b5b604051908082528060200260200182016040528015610ece57816020015b610ebb612ba1565b815260200190600190039081610eb35790505b509050600080600190505b610ee36007611da9565b811161108b573373ffffffffffffffffffffffffffffffffffffffff16600b600083815260200190815260200160002060010160009054906101000a900473ffffffffffffffffffffffffffffffffffffffff1673ffffffffffffffffffffffffffffffffffffffff160361107857600b60008281526020019081526020016000206040518060a0016040529081600082015481526020016001820160009054906101000a900473ffffffffffffffffffffffffffffffffffffffff1673ffffffffffffffffffffffffffffffffffffffff1673ffffffffffffffffffffffffffffffffffffffff1681526020016002820160009054906101000a900473ffffffffffffffffffffffffffffffffffffffff1673ffffffffffffffffffffffffffffffffffffffff1673ffffffffffffffffffffffffffffffffffffffff168152602001600382015481526020016004820160009054906101000a900460ff16151515158152505083838151811061105e5761105d61367e565b5b60200260200101819052508180611074906136ad565b9250505b8080611083906136ad565b915050610ed9565b5081935050505090565b6000806110a183612145565b9050600073ffffffffffffffffffffffffffffffffffffffff168173ffffffffffffffffffffffffffffffffffffffff1603611112576040517f08c379a0000000000000000000000000000000000000000000000000000000008152600401611109906137d3565b60405180910390fd5b80915050919050565b60008073ffffffffffffffffffffffffffffffffffffffff168273ffffffffffffffffffffffffffffffffffffffff160361118b576040517f08c379a000000000000000000000000000000000000000000000000000000000815260040161118290613865565b60405180910390fd5b600360008373ffffffffffffffffffffffffffffffffffffffff1673ffffffffffffffffffffffffffffffffffffffff168152602001908152602001600020549050919050565b60006111de6007612182565b60006111ea6007611da9565b90506111f63382612198565b61120081856123b5565b6040518060a001604052808281526020013373ffffffffffffffffffffffffffffffffffffffff168152602001600073ffffffffffffffffffffffffffffffffffffffff16815260200184815260200160001515815250600b60008381526020019081526020016000206000820151816000015560208201518160010160006101000a81548173ffffffffffffffffffffffffffffffffffffffff021916908373ffffffffffffffffffffffffffffffffffffffff16021790555060408201518160020160006101000a81548173ffffffffffffffffffffffffffffffffffffffff021916908373ffffffffffffffffffffffffffffffffffffffff1602179055506060820151816003015560808201518160040160006101000a81548160ff021916908315150217905550905050807fb640004f1d14576d0c209e240cad0410e0d8c0c33a09375861fbadae2588a98d3360008660006040516113679493929190613885565b60405180910390a28091505092915050565b600a60009054906101000a900473ffffffffffffffffffffffffffffffffffffffff1681565b6060600180546113ae906134c6565b80601f01602080910402602001604051908101604052809291908181526020018280546113da906134c6565b80156114275780601f106113fc57610100808354040283529160200191611427565b820191906000526020600020905b81548152906001019060200180831161140a57829003601f168201915b5050505050905090565b61144361143c611ce8565b8383612422565b5050565b600a60009054906101000a900473ffffffffffffffffffffffffffffffffffffffff1673ffffffffffffffffffffffffffffffffffffffff163373ffffffffffffffffffffffffffffffffffffffff16146114d7576040517f08c379a00000000000000000000000000000000000000000000000000000000081526004016114ce90613916565b60405180910390fd5b8060098190555050565b6114f26114ec611ce8565b83611db7565b611531576040517f08c379a000000000000000000000000000000000000000000000000000000000815260040161152890613767565b60405180910390fd5b61153d8484848461258e565b50505050565b6000600b6000838152602001908152602001600020905060008160030154116115a1576040517f08c379a000000000000000000000000000000000000000000000000000000000815260040161159890613982565b60405180910390fd5b600015158160040160009054906101000a900460ff161515146115f9576040517f08c379a00000000000000000000000000000000000000000000000000000000081526004016115f0906139ee565b60405180910390fd5b8060030154341461163f576040517f08c379a000000000000000000000000000000000000000000000000000000000815260040161163690613a5a565b60405180910390fd5b338160020160006101000a81548173ffffffffffffffffffffffffffffffffffffffff021916908373ffffffffffffffffffffffffffffffffffffffff16021790555060018160040160006101000a81548160ff0219169083151502179055506116a96008612182565b6000600a60009054906101000a900473ffffffffffffffffffffffffffffffffffffffff1673ffffffffffffffffffffffffffffffffffffffff166009546040516116f390613aab565b60006040518083038185875af1925050503d8060008114611730576040519150601f19603f3d011682016040523d82523d6000602084013e611735565b606091505b5050905080611779576040517f08c379a000000000000000000000000000000000000000000000000000000000815260040161177090613b0c565b60405180910390fd5b827f150ffca547cf855e7fcf5daa82e41c6523b5fb2c8b1309bbb6cf2f87c6ae5a318360010160009054906101000a900473ffffffffffffffffffffffffffffffffffffffff163385600301546040516117d593929190613b8b565b60405180910390a281600301543411156118a65760003373ffffffffffffffffffffffffffffffffffffffff16836003015434611812919061364a565b60405161181e90613aab565b60006040518083038185875af1925050503d806000811461185b576040519150601f19603f3d011682016040523d82523d6000602084013e611860565b606091505b50509050806118a4576040517f08c379a000000000000000000000000000000000000000000000000000000000815260040161189b90613c0e565b60405180910390fd5b505b505050565b60095481565b60606118bc82611c9d565b60006006600084815260200190815260200160002080546118dc906134c6565b80601f0160208091040260200160405190810160405280929190818152602001828054611908906134c6565b80156119555780601f1061192a57610100808354040283529160200191611955565b820191906000526020600020905b81548152906001019060200180831161193857829003601f168201915b5050505050905060006119666125ea565b9050600081510361197b5781925050506119be565b6000825111156119b0578082604051602001611998929190613c6a565b604051602081830303815290604052925050506119be565b6119b984612601565b925050505b919050565b6000600b600084815260200190815260200160002090503373ffffffffffffffffffffffffffffffffffffffff168160020160009054906101000a900473ffffffffffffffffffffffffffffffffffffffff1673ffffffffffffffffffffffffffffffffffffffff1614611a6c576040517f08c379a0000000000000000000000000000000000000000000000000000000008152600401611a6390613916565b60405180910390fd5b6009543414611ab0576040517f08c379a0000000000000000000000000000000000000000000000000000000008152600401611aa790613cda565b60405180910390fd5b81816003018190555060008160040160006101000a81548160ff021916908315150217905550338160010160006101000a81548173ffffffffffffffffffffffffffffffffffffffff021916908373ffffffffffffffffffffffffffffffffffffffff16021790555060008160020160006101000a81548173ffffffffffffffffffffffffffffffffffffffff021916908373ffffffffffffffffffffffffffffffffffffffff160217905550827f16995a1968784de2858cd75d406b5a07de5c4b1080374551621df9eb5cc3d93533600085604051611b9293929190613cfa565b60405180910390a2505050565b6000600560008473ffffffffffffffffffffffffffffffffffffffff1673ffffffffffffffffffffffffffffffffffffffff16815260200190815260200160002060008373ffffffffffffffffffffffffffffffffffffffff1673ffffffffffffffffffffffffffffffffffffffff16815260200190815260200160002060009054906101000a900460ff16905092915050565b60007f01ffc9a7000000000000000000000000000000000000000000000000000000007bffffffffffffffffffffffffffffffffffffffffffffffffffffffff1916827bffffffffffffffffffffffffffffffffffffffffffffffffffffffff1916149050919050565b611ca681612669565b611ce5576040517f08c379a0000000000000000000000000000000000000000000000000000000008152600401611cdc906137d3565b60405180910390fd5b50565b600033905090565b816004600083815260200190815260200160002060006101000a81548173ffffffffffffffffffffffffffffffffffffffff021916908373ffffffffffffffffffffffffffffffffffffffff160217905550808273ffffffffffffffffffffffffffffffffffffffff16611d6383611095565b73ffffffffffffffffffffffffffffffffffffffff167f8c5be1e5ebec7d5bd14f71427d1e84f3dd0314c0f7b2291e5b200ac8c7c3b92560405160405180910390a45050565b600081600001549050919050565b600080611dc383611095565b90508073ffffffffffffffffffffffffffffffffffffffff168473ffffffffffffffffffffffffffffffffffffffff161480611e055750611e048185611b9f565b5b80611e4357508373ffffffffffffffffffffffffffffffffffffffff16611e2b846106ea565b73ffffffffffffffffffffffffffffffffffffffff16145b91505092915050565b8273ffffffffffffffffffffffffffffffffffffffff16611e6c82611095565b73ffffffffffffffffffffffffffffffffffffffff1614611ec2576040517f08c379a0000000000000000000000000000000000000000000000000000000008152600401611eb990613da3565b60405180910390fd5b600073ffffffffffffffffffffffffffffffffffffffff168273ffffffffffffffffffffffffffffffffffffffff1603611f31576040517f08c379a0000000000000000000000000000000000000000000000000000000008152600401611f2890613e35565b60405180910390fd5b611f3e83838360016126aa565b8273ffffffffffffffffffffffffffffffffffffffff16611f5e82611095565b73ffffffffffffffffffffffffffffffffffffffff1614611fb4576040517f08c379a0000000000000000000000000000000000000000000000000000000008152600401611fab90613da3565b60405180910390fd5b6004600082815260200190815260200160002060006101000a81549073ffffffffffffffffffffffffffffffffffffffff02191690556001600360008573ffffffffffffffffffffffffffffffffffffffff1673ffffffffffffffffffffffffffffffffffffffff168152602001908152602001600020600082825403925050819055506001600360008473ffffffffffffffffffffffffffffffffffffffff1673ffffffffffffffffffffffffffffffffffffffff16815260200190815260200160002060008282540192505081905550816002600083815260200190815260200160002060006101000a81548173ffffffffffffffffffffffffffffffffffffffff021916908373ffffffffffffffffffffffffffffffffffffffff160217905550808273ffffffffffffffffffffffffffffffffffffffff168473ffffffffffffffffffffffffffffffffffffffff167fddf252ad1be2c89b69c2b068fc378daa952ba7f163c4a11628f55a4df523b3ef60405160405180910390a461214083838360016127d0565b505050565b60006002600083815260200190815260200160002060009054906101000a900473ffffffffffffffffffffffffffffffffffffffff169050919050565b6001816000016000828254019250508190555050565b600073ffffffffffffffffffffffffffffffffffffffff168273ffffffffffffffffffffffffffffffffffffffff1603612207576040517f08c379a00000000000000000000000000000000000000000000000000000000081526004016121fe90613ea1565b60405180910390fd5b61221081612669565b15612250576040517f08c379a000000000000000000000000000000000000000000000000000000000815260040161224790613f0d565b60405180910390fd5b61225e6000838360016126aa565b61226781612669565b156122a7576040517f08c379a000000000000000000000000000000000000000000000000000000000815260040161229e90613f0d565b60405180910390fd5b6001600360008473ffffffffffffffffffffffffffffffffffffffff1673ffffffffffffffffffffffffffffffffffffffff16815260200190815260200160002060008282540192505081905550816002600083815260200190815260200160002060006101000a81548173ffffffffffffffffffffffffffffffffffffffff021916908373ffffffffffffffffffffffffffffffffffffffff160217905550808273ffffffffffffffffffffffffffffffffffffffff16600073ffffffffffffffffffffffffffffffffffffffff167fddf252ad1be2c89b69c2b068fc378daa952ba7f163c4a11628f55a4df523b3ef60405160405180910390a46123b16000838360016127d0565b5050565b6123be82612669565b6123fd576040517f08c379a00000000000000000000000000000000000000000000000000000000081526004016123f490613f9f565b60405180910390fd5b8060066000848152602001908152602001600020908161241d9190614161565b505050565b8173ffffffffffffffffffffffffffffffffffffffff168373ffffffffffffffffffffffffffffffffffffffff1603612490576040517f08c379a00000000000000000000000000000000000000000000000000000000081526004016124879061427f565b60405180910390fd5b80600560008573ffffffffffffffffffffffffffffffffffffffff1673ffffffffffffffffffffffffffffffffffffffff16815260200190815260200160002060008473ffffffffffffffffffffffffffffffffffffffff1673ffffffffffffffffffffffffffffffffffffffff16815260200190815260200160002060006101000a81548160ff0219169083151502179055508173ffffffffffffffffffffffffffffffffffffffff168373ffffffffffffffffffffffffffffffffffffffff167f17307eab39ab6107e8899845ad3d59bd9653f200f220920489ca2b5937696c31836040516125819190612cb2565b60405180910390a3505050565b612599848484611e4c565b6125a5848484846127d6565b6125e4576040517f08c379a00000000000000000000000000000000000000000000000000000000081526004016125db90614311565b60405180910390fd5b50505050565b606060405180602001604052806000815250905090565b606061260c82611c9d565b60006126166125ea565b905060008151116126365760405180602001604052806000815250612661565b806126408461295d565b604051602001612651929190613c6a565b6040516020818303038152906040525b915050919050565b60008073ffffffffffffffffffffffffffffffffffffffff1661268b83612145565b73ffffffffffffffffffffffffffffffffffffffff1614159050919050565b60018111156127ca57600073ffffffffffffffffffffffffffffffffffffffff168473ffffffffffffffffffffffffffffffffffffffff161461273e5780600360008673ffffffffffffffffffffffffffffffffffffffff1673ffffffffffffffffffffffffffffffffffffffff1681526020019081526020016000206000828254612736919061364a565b925050819055505b600073ffffffffffffffffffffffffffffffffffffffff168373ffffffffffffffffffffffffffffffffffffffff16146127c95780600360008573ffffffffffffffffffffffffffffffffffffffff1673ffffffffffffffffffffffffffffffffffffffff16815260200190815260200160002060008282546127c19190614331565b925050819055505b5b50505050565b50505050565b60006127f78473ffffffffffffffffffffffffffffffffffffffff16612a2b565b15612950578373ffffffffffffffffffffffffffffffffffffffff1663150b7a02612820611ce8565b8786866040518563ffffffff1660e01b815260040161284294939291906143ba565b6020604051808303816000875af192505050801561287e57506040513d601f19601f8201168201806040525081019061287b919061441b565b60015b612900573d80600081146128ae576040519150601f19603f3d011682016040523d82523d6000602084013e6128b3565b606091505b5060008151036128f8576040517f08c379a00000000000000000000000000000000000000000000000000000000081526004016128ef90614311565b60405180910390fd5b805181602001fd5b63150b7a0260e01b7bffffffffffffffffffffffffffffffffffffffffffffffffffffffff1916817bffffffffffffffffffffffffffffffffffffffffffffffffffffffff191614915050612955565b600190505b949350505050565b60606000600161296c84612a4e565b01905060008167ffffffffffffffff81111561298b5761298a6130d6565b5b6040519080825280601f01601f1916602001820160405280156129bd5781602001600182028036833780820191505090505b509050600082602001820190505b600115612a20578080600190039150507f3031323334353637383961626364656600000000000000000000000000000000600a86061a8153600a8581612a1457612a13614448565b5b049450600085036129cb575b819350505050919050565b6000808273ffffffffffffffffffffffffffffffffffffffff163b119050919050565b600080600090507a184f03e93ff9f4daa797ed6e38ed64bf6a1f0100000000000000008310612aac577a184f03e93ff9f4daa797ed6e38ed64bf6a1f0100000000000000008381612aa257612aa1614448565b5b0492506040810190505b6d04ee2d6d415b85acef81000000008310612ae9576d04ee2d6d415b85acef81000000008381612adf57612ade614448565b5b0492506020810190505b662386f26fc100008310612b1857662386f26fc100008381612b0e57612b0d614448565b5b0492506010810190505b6305f5e1008310612b41576305f5e1008381612b3757612b36614448565b5b0492506008810190505b6127108310612b66576127108381612b5c57612b5b614448565b5b0492506004810190505b60648310612b895760648381612b7f57612b7e614448565b5b0492506002810190505b600a8310612b98576001810190505b80915050919050565b6040518060a0016040528060008152602001600073ffffffffffffffffffffffffffffffffffffffff168152602001600073ffffffffffffffffffffffffffffffffffffffff168152602001600081526020016000151581525090565b6000604051905090565b600080fd5b600080fd5b60007fffffffff0000000000000000000000000000000000000000000000000000000082169050919050565b612c4781612c12565b8114612c5257600080fd5b50565b600081359050612c6481612c3e565b92915050565b600060208284031215612c8057612c7f612c08565b5b6000612c8e84828501612c55565b91505092915050565b60008115159050919050565b612cac81612c97565b82525050565b6000602082019050612cc76000830184612ca3565b92915050565b600081519050919050565b600082825260208201905092915050565b60005b83811015612d07578082015181840152602081019050612cec565b60008484015250505050565b6000601f19601f8301169050919050565b6000612d2f82612ccd565b612d398185612cd8565b9350612d49818560208601612ce9565b612d5281612d13565b840191505092915050565b60006020820190508181036000830152612d778184612d24565b905092915050565b6000819050919050565b612d9281612d7f565b8114612d9d57600080fd5b50565b600081359050612daf81612d89565b92915050565b600060208284031215612dcb57612dca612c08565b5b6000612dd984828501612da0565b91505092915050565b600073ffffffffffffffffffffffffffffffffffffffff82169050919050565b6000612e0d82612de2565b9050919050565b612e1d81612e02565b82525050565b6000602082019050612e386000830184612e14565b92915050565b612e4781612e02565b8114612e5257600080fd5b50565b600081359050612e6481612e3e565b92915050565b60008060408385031215612e8157612e80612c08565b5b6000612e8f85828601612e55565b9250506020612ea085828601612da0565b9150509250929050565b600081519050919050565b600082825260208201905092915050565b6000819050602082019050919050565b612edf81612d7f565b82525050565b6000612ef082612de2565b9050919050565b612f0081612ee5565b82525050565b612f0f81612c97565b82525050565b60a082016000820151612f2b6000850182612ed6565b506020820151612f3e6020850182612ef7565b506040820151612f516040850182612ef7565b506060820151612f646060850182612ed6565b506080820151612f776080850182612f06565b50505050565b6000612f898383612f15565b60a08301905092915050565b6000602082019050919050565b6000612fad82612eaa565b612fb78185612eb5565b9350612fc283612ec6565b8060005b83811015612ff3578151612fda8882612f7d565b9750612fe583612f95565b925050600181019050612fc6565b5085935050505092915050565b6000602082019050818103600083015261301a8184612fa2565b905092915050565b61302b81612d7f565b82525050565b60006020820190506130466000830184613022565b92915050565b60008060006060848603121561306557613064612c08565b5b600061307386828701612e55565b935050602061308486828701612e55565b925050604061309586828701612da0565b9150509250925092565b6000602082840312156130b5576130b4612c08565b5b60006130c384828501612e55565b91505092915050565b600080fd5b600080fd5b7f4e487b7100000000000000000000000000000000000000000000000000000000600052604160045260246000fd5b61310e82612d13565b810181811067ffffffffffffffff8211171561312d5761312c6130d6565b5b80604052505050565b6000613140612bfe565b905061314c8282613105565b919050565b600067ffffffffffffffff82111561316c5761316b6130d6565b5b61317582612d13565b9050602081019050919050565b82818337600083830152505050565b60006131a461319f84613151565b613136565b9050828152602081018484840111156131c0576131bf6130d1565b5b6131cb848285613182565b509392505050565b600082601f8301126131e8576131e76130cc565b5b81356131f8848260208601613191565b91505092915050565b6000806040838503121561321857613217612c08565b5b600083013567ffffffffffffffff81111561323657613235612c0d565b5b613242858286016131d3565b925050602061325385828601612da0565b9150509250929050565b61326681612ee5565b82525050565b6000602082019050613281600083018461325d565b92915050565b61329081612c97565b811461329b57600080fd5b50565b6000813590506132ad81613287565b92915050565b600080604083850312156132ca576132c9612c08565b5b60006132d885828601612e55565b92505060206132e98582860161329e565b9150509250929050565b600067ffffffffffffffff82111561330e5761330d6130d6565b5b61331782612d13565b9050602081019050919050565b6000613337613332846132f3565b613136565b905082815260208101848484011115613353576133526130d1565b5b61335e848285613182565b509392505050565b600082601f83011261337b5761337a6130cc565b5b813561338b848260208601613324565b91505092915050565b600080600080608085870312156133ae576133ad612c08565b5b60006133bc87828801612e55565b94505060206133cd87828801612e55565b93505060406133de87828801612da0565b925050606085013567ffffffffffffffff8111156133ff576133fe612c0d565b5b61340b87828801613366565b91505092959194509250565b6000806040838503121561342e5761342d612c08565b5b600061343c85828601612da0565b925050602061344d85828601612da0565b9150509250929050565b6000806040838503121561346e5761346d612c08565b5b600061347c85828601612e55565b925050602061348d85828601612e55565b9150509250929050565b7f4e487b7100000000000000000000000000000000000000000000000000000000600052602260045260246000fd5b600060028204905060018216806134de57607f821691505b6020821081036134f1576134f0613497565b5b50919050565b7f4552433732313a20617070726f76616c20746f2063757272656e74206f776e6560008201527f7200000000000000000000000000000000000000000000000000000000000000602082015250565b6000613553602183612cd8565b915061355e826134f7565b604082019050919050565b6000602082019050818103600083015261358281613546565b9050919050565b7f4552433732313a20617070726f76652063616c6c6572206973206e6f7420746f60008201527f6b656e206f776e6572206f7220617070726f76656420666f7220616c6c000000602082015250565b60006135e5603d83612cd8565b91506135f082613589565b604082019050919050565b60006020820190508181036000830152613614816135d8565b9050919050565b7f4e487b7100000000000000000000000000000000000000000000000000000000600052601160045260246000fd5b600061365582612d7f565b915061366083612d7f565b92508282039050818111156136785761367761361b565b5b92915050565b7f4e487b7100000000000000000000000000000000000000000000000000000000600052603260045260246000fd5b60006136b882612d7f565b91507fffffffffffffffffffffffffffffffffffffffffffffffffffffffffffffffff82036136ea576136e961361b565b5b600182019050919050565b7f4552433732313a2063616c6c6572206973206e6f7420746f6b656e206f776e6560008201527f72206f7220617070726f76656400000000000000000000000000000000000000602082015250565b6000613751602d83612cd8565b915061375c826136f5565b604082019050919050565b6000602082019050818103600083015261378081613744565b9050919050565b7f4552433732313a20696e76616c696420746f6b656e2049440000000000000000600082015250565b60006137bd601883612cd8565b91506137c882613787565b602082019050919050565b600060208201905081810360008301526137ec816137b0565b9050919050565b7f4552433732313a2061646472657373207a65726f206973206e6f74206120766160008201527f6c6964206f776e65720000000000000000000000000000000000000000000000602082015250565b600061384f602983612cd8565b915061385a826137f3565b604082019050919050565b6000602082019050818103600083015261387e81613842565b9050919050565b600060808201905061389a6000830187612e14565b6138a76020830186612e14565b6138b46040830185613022565b6138c16060830184612ca3565b95945050505050565b7f4e6f7420617574686f72697a6564000000000000000000000000000000000000600082015250565b6000613900600e83612cd8565b915061390b826138ca565b602082019050919050565b6000602082019050818103600083015261392f816138f3565b9050919050565b7f496e76616c696420707269636500000000000000000000000000000000000000600082015250565b600061396c600d83612cd8565b915061397782613936565b602082019050919050565b6000602082019050818103600083015261399b8161395f565b9050919050565b7f416c726561647920736f6c640000000000000000000000000000000000000000600082015250565b60006139d8600c83612cd8565b91506139e3826139a2565b602082019050919050565b60006020820190508181036000830152613a07816139cb565b9050919050565b7f496e76616c696420616d6f756e74000000000000000000000000000000000000600082015250565b6000613a44600e83612cd8565b9150613a4f82613a0e565b602082019050919050565b60006020820190508181036000830152613a7381613a37565b9050919050565b600081905092915050565b50565b6000613a95600083613a7a565b9150613aa082613a85565b600082019050919050565b6000613ab682613a88565b9150819050919050565b7f5061796d656e7420746f206f776e6572206661696c6564000000000000000000600082015250565b6000613af6601783612cd8565b9150613b0182613ac0565b602082019050919050565b60006020820190508181036000830152613b2581613ae9565b9050919050565b6000819050919050565b6000613b51613b4c613b4784612de2565b613b2c565b612de2565b9050919050565b6000613b6382613b36565b9050919050565b6000613b7582613b58565b9050919050565b613b8581613b6a565b82525050565b6000606082019050613ba06000830186613b7c565b613bad6020830185612e14565b613bba6040830184613022565b949350505050565b7f526566756e64206661696c656400000000000000000000000000000000000000600082015250565b6000613bf8600d83612cd8565b9150613c0382613bc2565b602082019050919050565b60006020820190508181036000830152613c2781613beb565b9050919050565b600081905092915050565b6000613c4482612ccd565b613c4e8185613c2e565b9350613c5e818560208601612ce9565b80840191505092915050565b6000613c768285613c39565b9150613c828284613c39565b91508190509392505050565b7f496e76616c6964206c697374696e672070726963650000000000000000000000600082015250565b6000613cc4601583612cd8565b9150613ccf82613c8e565b602082019050919050565b60006020820190508181036000830152613cf381613cb7565b9050919050565b6000606082019050613d0f6000830186612e14565b613d1c6020830185612e14565b613d296040830184613022565b949350505050565b7f4552433732313a207472616e736665722066726f6d20696e636f72726563742060008201527f6f776e6572000000000000000000000000000000000000000000000000000000602082015250565b6000613d8d602583612cd8565b9150613d9882613d31565b604082019050919050565b60006020820190508181036000830152613dbc81613d80565b9050919050565b7f4552433732313a207472616e7366657220746f20746865207a65726f2061646460008201527f7265737300000000000000000000000000000000000000000000000000000000602082015250565b6000613e1f602483612cd8565b9150613e2a82613dc3565b604082019050919050565b60006020820190508181036000830152613e4e81613e12565b9050919050565b7f4552433732313a206d696e7420746f20746865207a65726f2061646472657373600082015250565b6000613e8b602083612cd8565b9150613e9682613e55565b602082019050919050565b60006020820190508181036000830152613eba81613e7e565b9050919050565b7f4552433732313a20746f6b656e20616c7265616479206d696e74656400000000600082015250565b6000613ef7601c83612cd8565b9150613f0282613ec1565b602082019050919050565b60006020820190508181036000830152613f2681613eea565b9050919050565b7f45524337323155524953746f726167653a2055524920736574206f66206e6f6e60008201527f6578697374656e7420746f6b656e000000000000000000000000000000000000602082015250565b6000613f89602e83612cd8565b9150613f9482613f2d565b604082019050919050565b60006020820190508181036000830152613fb881613f7c565b9050919050565b60008190508160005260206000209050919050565b60006020601f8301049050919050565b600082821b905092915050565b6000600883026140217fffffffffffffffffffffffffffffffffffffffffffffffffffffffffffffffff82613fe4565b61402b8683613fe4565b95508019841693508086168417925050509392505050565b600061405e61405961405484612d7f565b613b2c565b612d7f565b9050919050565b6000819050919050565b61407883614043565b61408c61408482614065565b848454613ff1565b825550505050565b600090565b6140a1614094565b6140ac81848461406f565b505050565b5b818110156140d0576140c5600082614099565b6001810190506140b2565b5050565b601f821115614115576140e681613fbf565b6140ef84613fd4565b810160208510156140fe578190505b61411261410a85613fd4565b8301826140b1565b50505b505050565b600082821c905092915050565b60006141386000198460080261411a565b1980831691505092915050565b60006141518383614127565b9150826002028217905092915050565b61416a82612ccd565b67ffffffffffffffff811115614183576141826130d6565b5b61418d82546134c6565b6141988282856140d4565b600060209050601f8311600181146141cb57600084156141b9578287015190505b6141c38582614145565b86555061422b565b601f1984166141d986613fbf565b60005b82811015614201578489015182556001820191506020850194506020810190506141dc565b8683101561421e578489015161421a601f891682614127565b8355505b6001600288020188555050505b505050505050565b7f4552433732313a20617070726f766520746f2063616c6c657200000000000000600082015250565b6000614269601983612cd8565b915061427482614233565b602082019050919050565b600060208201905081810360008301526142988161425c565b9050919050565b7f4552433732313a207472616e7366657220746f206e6f6e20455243373231526560008201527f63656976657220696d706c656d656e7465720000000000000000000000000000602082015250565b60006142fb603283612cd8565b91506143068261429f565b604082019050919050565b6000602082019050818103600083015261432a816142ee565b9050919050565b600061433c82612d7f565b915061434783612d7f565b925082820190508082111561435f5761435e61361b565b5b92915050565b600081519050919050565b600082825260208201905092915050565b600061438c82614365565b6143968185614370565b93506143a6818560208601612ce9565b6143af81612d13565b840191505092915050565b60006080820190506143cf6000830187612e14565b6143dc6020830186612e14565b6143e96040830185613022565b81810360608301526143fb8184614381565b905095945050505050565b60008151905061441581612c3e565b92915050565b60006020828403121561443157614430612c08565b5b600061443f84828501614406565b91505092915050565b7f4e487b7100000000000000000000000000000000000000000000000000000000600052601260045260246000fdfea264697066735822122078f3825d0a545b842fc4b4b885c4cd87a66e2776e5b014138b0c0d284d965f2b64736f6c63430008110033",
  "linkReferences": {},
  "deployedLinkReferences": {}
}