{
  "_format": "hh-sol-artifact-1",
  "contractName": "NFTMarketplace",
  "sourceName": "contracts/NFTMarketplace.sol",
  "abi": [
    {
      "inputs": [],
      "stateMutability": "nonpayable",
      "type": "constructor"
    },
    {
      "anonymous": false,
      "inputs": [
        {
          "indexed": true,
          "internalType": "address",
          "name": "owner",
          "type": "address"
        },
        {
          "indexed": true,
          "internalType": "address",
          "name": "approved",
          "type": "address"
        },
        {
          "indexed": true,
          "internalType": "uint256",
          "name": "tokenId",
          "type": "uint256"
        }
      ],
      "name": "Approval",
      "type": "event"
    },
    {
      "anonymous": false,
      "inputs": [
        {
          "indexed": true,
          "internalType": "address",
          "name": "owner",
          "type": "address"
        },
        {
          "indexed": true,
          "internalType": "address",
          "name": "operator",
          "type": "address"
        },
        {
          "indexed": false,
          "internalType": "bool",
          "name": "approved",
          "type": "bool"
        }
      ],
      "name": "ApprovalForAll",
      "type": "event"
    },
    {
      "anonymous": false,
      "inputs": [
        {
          "indexed": true,
          "internalType": "uint256",
          "name": "tokenId",
          "type": "uint256"
        },
        {
          "indexed": false,
          "internalType": "address",
          "name": "seller",
          "type": "address"
        },
        {
          "indexed": false,
          "internalType": "address",
          "name": "owner",
          "type": "address"
        },
        {
          "indexed": false,
          "internalType": "uint256",
          "name": "price",
          "type": "uint256"
        },
        {
          "indexed": false,
          "internalType": "bool",
          "name": "sold",
          "type": "bool"
        }
      ],
      "name": "MarketItemCreated",
      "type": "event"
    },
    {
      "anonymous": false,
      "inputs": [
        {
          "indexed": true,
          "internalType": "uint256",
          "name": "tokenId",
          "type": "uint256"
        },
        {
          "indexed": false,
          "internalType": "address",
          "name": "seller",
          "type": "address"
        },
        {
          "indexed": false,
          "internalType": "address",
          "name": "owner",
          "type": "address"
        },
        {
          "indexed": false,
          "internalType": "uint256",
          "name": "price",
          "type": "uint256"
        }
      ],
      "name": "MarketItemResold",
      "type": "event"
    },
    {
      "anonymous": false,
      "inputs": [
        {
          "indexed": true,
          "internalType": "uint256",
          "name": "tokenId",
          "type": "uint256"
        },
        {
          "indexed": false,
          "internalType": "address",
          "name": "seller",
          "type": "address"
        },
        {
          "indexed": false,
          "internalType": "address",
          "name": "owner",
          "type": "address"
        },
        {
          "indexed": false,
          "internalType": "uint256",
          "name": "price",
          "type": "uint256"
        }
      ],
      "name": "MarketItemSold",
      "type": "event"
    },
    {
      "anonymous": false,
      "inputs": [
        {
          "indexed": true,
          "internalType": "address",
          "name": "from",
          "type": "address"
        },
        {
          "indexed": true,
          "internalType": "address",
          "name": "to",
          "type": "address"
        },
        {
          "indexed": true,
          "internalType": "uint256",
          "name": "tokenId",
          "type": "uint256"
        }
      ],
      "name": "Transfer",
      "type": "event"
    },
    {
      "inputs": [
        {
          "internalType": "address",
          "name": "to",
          "type": "address"
        },
        {
          "internalType": "uint256",
          "name": "tokenId",
          "type": "uint256"
        }
      ],
      "name": "approve",
      "outputs": [],
      "stateMutability": "nonpayable",
      "type": "function"
    },
    {
      "inputs": [
        {
          "internalType": "address",
          "name": "owner",
          "type": "address"
        }
      ],
      "name": "balanceOf",
      "outputs": [
        {
          "internalType": "uint256",
          "name": "",
          "type": "uint256"
        }
      ],
      "stateMutability": "view",
      "type": "function"
    },
    {
      "inputs": [
        {
          "internalType": "string",
          "name": "tokenURI",
          "type": "string"
        },
        {
          "internalType": "uint256",
          "name": "price",
          "type": "uint256"
        }
      ],
      "name": "createMarketItemToken",
      "outputs": [
        {
          "internalType": "uint256",
          "name": "",
          "type": "uint256"
        }
      ],
      "stateMutability": "payable",
      "type": "function"
    },
    {
      "inputs": [
        {
          "internalType": "uint256",
          "name": "tokenId",
          "type": "uint256"
        }
      ],
      "name": "createMarketSale",
      "outputs": [],
      "stateMutability": "payable",
      "type": "function"
    },
    {
      "inputs": [],
      "name": "fetchItemsListed",
      "outputs": [
        {
          "components": [
            {
              "internalType": "uint256",
              "name": "tokenId",
              "type": "uint256"
            },
            {
              "internalType": "address payable",
              "name": "seller",
              "type": "address"
            },
            {
              "internalType": "address payable",
              "name": "owner",
              "type": "address"
            },
            {
              "internalType": "uint256",
              "name": "price",
              "type": "uint256"
            },
            {
              "internalType": "bool",
              "name": "sold",
              "type": "bool"
            }
          ],
          "internalType": "struct NFTMarketplace.MarketItem[]",
          "name": "",
          "type": "tuple[]"
        }
      ],
      "stateMutability": "view",
      "type": "function"
    },
    {
      "inputs": [],
      "name": "fetchMarketItems",
      "outputs": [
        {
          "components": [
            {
              "internalType": "uint256",
              "name": "tokenId",
              "type": "uint256"
            },
            {
              "internalType": "address payable",
              "name": "seller",
              "type": "address"
            },
            {
              "internalType": "address payable",
              "name": "owner",
              "type": "address"
            },
            {
              "internalType": "uint256",
              "name": "price",
              "type": "uint256"
            },
            {
              "internalType": "bool",
              "name": "sold",
              "type": "bool"
            }
          ],
          "internalType": "struct NFTMarketplace.MarketItem[]",
          "name": "",
          "type": "tuple[]"
        }
      ],
      "stateMutability": "view",
      "type": "function"
    },
    {
      "inputs": [],
      "name": "fetchMyNFTs",
      "outputs": [
        {
          "components": [
            {
              "internalType": "uint256",
              "name": "tokenId",
              "type": "uint256"
            },
            {
              "internalType": "address payable",
              "name": "seller",
              "type": "address"
            },
            {
              "internalType": "address payable",
              "name": "owner",
              "type": "address"
            },
            {
              "internalType": "uint256",
              "name": "price",
              "type": "uint256"
            },
            {
              "internalType": "bool",
              "name": "sold",
              "type": "bool"
            }
          ],
          "internalType": "struct NFTMarketplace.MarketItem[]",
          "name": "",
          "type": "tuple[]"
        }
      ],
      "stateMutability": "view",
      "type": "function"
    },
    {
      "inputs": [
        {
          "internalType": "uint256",
          "name": "tokenId",
          "type": "uint256"
        }
      ],
      "name": "getApproved",
      "outputs": [
        {
          "internalType": "address",
          "name": "",
          "type": "address"
        }
      ],
      "stateMutability": "view",
      "type": "function"
    },
    {
      "inputs": [],
      "name": "getListingPrice",
      "outputs": [
        {
          "internalType": "uint256",
          "name": "",
          "type": "uint256"
        }
      ],
      "stateMutability": "view",
      "type": "function"
    },
    {
      "inputs": [
        {
          "internalType": "address",
          "name": "owner",
          "type": "address"
        },
        {
          "internalType": "address",
          "name": "operator",
          "type": "address"
        }
      ],
      "name": "isApprovedForAll",
      "outputs": [
        {
          "internalType": "bool",
          "name": "",
          "type": "bool"
        }
      ],
      "stateMutability": "view",
      "type": "function"
    },
    {
      "inputs": [],
      "name": "name",
      "outputs": [
        {
          "internalType": "string",
          "name": "",
          "type": "string"
        }
      ],
      "stateMutability": "view",
      "type": "function"
    },
    {
      "inputs": [
        {
          "internalType": "uint256",
          "name": "tokenId",
          "type": "uint256"
        }
      ],
      "name": "ownerOf",
      "outputs": [
        {
          "internalType": "address",
          "name": "",
          "type": "address"
        }
      ],
      "stateMutability": "view",
      "type": "function"
    },
    {
      "inputs": [
        {
          "internalType": "uint256",
          "name": "tokenId",
          "type": "uint256"
        },
        {
          "internalType": "uint256",
          "name": "price",
          "type": "uint256"
        }
      ],
      "name": "resellToken",
      "outputs": [],
      "stateMutability": "payable",
      "type": "function"
    },
    {
      "inputs": [
        {
          "internalType": "address",
          "name": "from",
          "type": "address"
        },
        {
          "internalType": "address",
          "name": "to",
          "type": "address"
        },
        {
          "internalType": "uint256",
          "name": "tokenId",
          "type": "uint256"
        }
      ],
      "name": "safeTransferFrom",
      "outputs": [],
      "stateMutability": "nonpayable",
      "type": "function"
    },
    {
      "inputs": [
        {
          "internalType": "address",
          "name": "from",
          "type": "address"
        },
        {
          "internalType": "address",
          "name": "to",
          "type": "address"
        },
        {
          "internalType": "uint256",
          "name": "tokenId",
          "type": "uint256"
        },
        {
          "internalType": "bytes",
          "name": "data",
          "type": "bytes"
        }
      ],
      "name": "safeTransferFrom",
      "outputs": [],
      "stateMutability": "nonpayable",
      "type": "function"
    },
    {
      "inputs": [
        {
          "internalType": "address",
          "name": "operator",
          "type": "address"
        },
        {
          "internalType": "bool",
          "name": "approved",
          "type": "bool"
        }
      ],
      "name": "setApprovalForAll",
      "outputs": [],
      "stateMutability": "nonpayable",
      "type": "function"
    },
    {
      "inputs": [
        {
          "internalType": "bytes4",
          "name": "interfaceId",
          "type": "bytes4"
        }
      ],
      "name": "supportsInterface",
      "outputs": [
        {
          "internalType": "bool",
          "name": "",
          "type": "bool"
        }
      ],
      "stateMutability": "view",
      "type": "function"
    },
    {
      "inputs": [],
      "name": "symbol",
      "outputs": [
        {
          "internalType": "string",
          "name": "",
          "type": "string"
        }
      ],
      "stateMutability": "view",
      "type": "function"
    },
    {
      "inputs": [
        {
          "internalType": "uint256",
          "name": "tokenId",
          "type": "uint256"
        }
      ],
      "name": "tokenURI",
      "outputs": [
        {
          "internalType": "string",
          "name": "",
          "type": "string"
        }
      ],
      "stateMutability": "view",
      "type": "function"
    },
    {
      "inputs": [
        {
          "internalType": "address",
          "name": "from",
          "type": "address"
        },
        {
          "internalType": "address",
          "name": "to",
          "type": "address"
        },
        {
          "internalType": "uint256",
          "name": "tokenId",
          "type": "uint256"
        }
      ],
      "name": "transferFrom",
      "outputs": [],
      "stateMutability": "nonpayable",
      "type": "function"
    },
    {
      "inputs": [
        {
          "internalType": "uint256",
          "name": "_listingPrice",
          "type": "uint256"
        }
      ],
      "name": "updateListingPrice",
      "outputs": [],
      "stateMutability": "payable",
      "type": "function"
    }
  ],
  "bytecode": "0x608060405266082bd67afbc0006009553480156200001c57600080fd5b506040518060400160405280600e81526020017f4379636c6f6e6520546f6b656e730000000000000000000000000000000000008152506040518060400160405280600381526020017f43544e000000000000000000000000000000000000000000000000000000000081525081600090816200009a919062000370565b508060019081620000ac919062000370565b50505033600a60006101000a81548173ffffffffffffffffffffffffffffffffffffffff021916908373ffffffffffffffffffffffffffffffffffffffff16021790555062000457565b600081519050919050565b7f4e487b7100000000000000000000000000000000000000000000000000000000600052604160045260246000fd5b7f4e487b7100000000000000000000000000000000000000000000000000000000600052602260045260246000fd5b600060028204905060018216806200017857607f821691505b6020821081036200018e576200018d62000130565b5b50919050565b60008190508160005260206000209050919050565b60006020601f8301049050919050565b600082821b905092915050565b600060088302620001f87fffffffffffffffffffffffffffffffffffffffffffffffffffffffffffffffff82620001b9565b620002048683620001b9565b95508019841693508086168417925050509392505050565b6000819050919050565b6000819050919050565b6000620002516200024b62000245846200021c565b62000226565b6200021c565b9050919050565b6000819050919050565b6200026d8362000230565b620002856200027c8262000258565b848454620001c6565b825550505050565b600090565b6200029c6200028d565b620002a981848462000262565b505050565b5b81811015620002d157620002c560008262000292565b600181019050620002af565b5050565b601f8211156200032057620002ea8162000194565b620002f584620001a9565b8101602085101562000305578190505b6200031d6200031485620001a9565b830182620002ae565b50505b505050565b600082821c905092915050565b6000620003456000198460080262000325565b1980831691505092915050565b600062000360838362000332565b9150826002028217905092915050565b6200037b82620000f6565b67ffffffffffffffff81111562000397576200039662000101565b5b620003a382546200015f565b620003b0828285620002d5565b600060209050601f831160018114620003e85760008415620003d3578287015190505b620003df858262000352565b8655506200044f565b601f198416620003f88662000194565b60005b828110156200042257848901518255600182019150602085019450602081019050620003fb565b868310156200044257848901516200043e601f89168262000332565b8355505b6001600288020188555050505b505050505050565b61449d80620004676000396000f3fe60806040526004361061012a5760003560e01c806345f8fa80116100ab578063ae677aa31161006f578063ae677aa3146103f9578063b88d4fde14610415578063be9af5361461043e578063c87b56dd1461045a578063e219fc7514610497578063e985e9c5146104b35761012a565b806345f8fa80146103005780636352211e1461032b57806370a082311461036857806395d89b41146103a5578063a22cb465146103d05761012a565b806312e85585116100f257806312e85585146102285780631e4fec0514610253578063202e37401461028357806323b872dd146102ae57806342842e0e146102d75761012a565b806301ffc9a71461012f57806306fdde031461016c578063081812fc14610197578063095ea7b3146101d45780630f08efe0146101fd575b600080fd5b34801561013b57600080fd5b5061015660048036038101906101519190612c84565b6104f0565b6040516101639190612ccc565b60405180910390f35b34801561017857600080fd5b506101816105d2565b60405161018e9190612d77565b60405180910390f35b3480156101a357600080fd5b506101be60048036038101906101b99190612dcf565b610664565b6040516101cb9190612e3d565b60405180910390f35b3480156101e057600080fd5b506101fb60048036038101906101f69190612e84565b6106aa565b005b34801561020957600080fd5b506102126107c1565b60405161021f919061301a565b60405180910390f35b34801561023457600080fd5b5061023d610a01565b60405161024a919061304b565b60405180910390f35b61026d6004803603810190610268919061319b565b610a0b565b60405161027a919061304b565b60405180910390f35b34801561028f57600080fd5b50610298610bbb565b6040516102a5919061301a565b60405180910390f35b3480156102ba57600080fd5b506102d560048036038101906102d091906131f7565b610e7d565b005b3480156102e357600080fd5b506102fe60048036038101906102f991906131f7565b610edd565b005b34801561030c57600080fd5b50610315610efd565b604051610322919061301a565b60405180910390f35b34801561033757600080fd5b50610352600480360381019061034d9190612dcf565b6111bf565b60405161035f9190612e3d565b60405180910390f35b34801561037457600080fd5b5061038f600480360381019061038a919061324a565b611245565b60405161039c919061304b565b60405180910390f35b3480156103b157600080fd5b506103ba6112fc565b6040516103c79190612d77565b60405180910390f35b3480156103dc57600080fd5b506103f760048036038101906103f291906132a3565b61138e565b005b610413600480360381019061040e9190612dcf565b6113a4565b005b34801561042157600080fd5b5061043c60048036038101906104379190613384565b61143e565b005b61045860048036038101906104539190612dcf565b6114a0565b005b34801561046657600080fd5b50610481600480360381019061047c9190612dcf565b61185c565b60405161048e9190612d77565b60405180910390f35b6104b160048036038101906104ac9190613407565b61196e565b005b3480156104bf57600080fd5b506104da60048036038101906104d59190613447565b611b5d565b6040516104e79190612ccc565b60405180910390f35b60007f80ac58cd000000000000000000000000000000000000000000000000000000007bffffffffffffffffffffffffffffffffffffffffffffffffffffffff1916827bffffffffffffffffffffffffffffffffffffffffffffffffffffffff191614806105bb57507f5b5e139f000000000000000000000000000000000000000000000000000000007bffffffffffffffffffffffffffffffffffffffffffffffffffffffff1916827bffffffffffffffffffffffffffffffffffffffffffffffffffffffff1916145b806105cb57506105ca82611bf1565b5b9050919050565b6060600080546105e1906134b6565b80601f016020809104026020016040519081016040528092919081815260200182805461060d906134b6565b801561065a5780601f1061062f5761010080835404028352916020019161065a565b820191906000526020600020905b81548152906001019060200180831161063d57829003601f168201915b5050505050905090565b600061066f82611c5b565b6004600083815260200190815260200160002060009054906101000a900473ffffffffffffffffffffffffffffffffffffffff169050919050565b60006106b5826111bf565b90508073ffffffffffffffffffffffffffffffffffffffff168373ffffffffffffffffffffffffffffffffffffffff1603610725576040517f08c379a000000000000000000000000000000000000000000000000000000000815260040161071c90613559565b60405180910390fd5b8073ffffffffffffffffffffffffffffffffffffffff16610744611ca6565b73ffffffffffffffffffffffffffffffffffffffff16148061077357506107728161076d611ca6565b611b5d565b5b6107b2576040517f08c379a00000000000000000000000000000000000000000000000000000000081526004016107a9906135eb565b60405180910390fd5b6107bc8383611cae565b505050565b606060006107cf6008611d67565b6107d96007611d67565b6107e3919061363a565b905060008167ffffffffffffffff81111561080157610800613070565b5b60405190808252806020026020018201604052801561083a57816020015b610827612bbb565b81526020019060019003908161081f5790505b509050600080600190505b61084f6007611d67565b81116109f7573073ffffffffffffffffffffffffffffffffffffffff16600b600083815260200190815260200160002060020160009054906101000a900473ffffffffffffffffffffffffffffffffffffffff1673ffffffffffffffffffffffffffffffffffffffff16036109e457600b60008281526020019081526020016000206040518060a0016040529081600082015481526020016001820160009054906101000a900473ffffffffffffffffffffffffffffffffffffffff1673ffffffffffffffffffffffffffffffffffffffff1673ffffffffffffffffffffffffffffffffffffffff1681526020016002820160009054906101000a900473ffffffffffffffffffffffffffffffffffffffff1673ffffffffffffffffffffffffffffffffffffffff1673ffffffffffffffffffffffffffffffffffffffff168152602001600382015481526020016004820160009054906101000a900460ff1615151515815250508383815181106109ca576109c961366e565b5b602002602001018190525081806109e09061369d565b9250505b80806109ef9061369d565b915050610845565b5081935050505090565b6000600954905090565b6000610a176007611d75565b6000610a236007611d67565b9050610a2f3382611d8b565b610a398185611fa8565b6040518060a001604052808281526020013373ffffffffffffffffffffffffffffffffffffffff1681526020013073ffffffffffffffffffffffffffffffffffffffff16815260200184815260200160001515815250600b60008381526020019081526020016000206000820151816000015560208201518160010160006101000a81548173ffffffffffffffffffffffffffffffffffffffff021916908373ffffffffffffffffffffffffffffffffffffffff16021790555060408201518160020160006101000a81548173ffffffffffffffffffffffffffffffffffffffff021916908373ffffffffffffffffffffffffffffffffffffffff1602179055506060820151816003015560808201518160040160006101000a81548160ff021916908315150217905550905050610b72333083612015565b807fb640004f1d14576d0c209e240cad0410e0d8c0c33a09375861fbadae2588a98d3330866000604051610ba994939291906136e5565b60405180910390a28091505092915050565b6060600080600190505b610bcf6007611d67565b8111610c60573373ffffffffffffffffffffffffffffffffffffffff16600b600083815260200190815260200160002060020160009054906101000a900473ffffffffffffffffffffffffffffffffffffffff1673ffffffffffffffffffffffffffffffffffffffff1603610c4d578180610c499061369d565b9250505b8080610c589061369d565b915050610bc5565b5060008167ffffffffffffffff811115610c7d57610c7c613070565b5b604051908082528060200260200182016040528015610cb657816020015b610ca3612bbb565b815260200190600190039081610c9b5790505b509050600080600190505b610ccb6007611d67565b8111610e73573373ffffffffffffffffffffffffffffffffffffffff16600b600083815260200190815260200160002060020160009054906101000a900473ffffffffffffffffffffffffffffffffffffffff1673ffffffffffffffffffffffffffffffffffffffff1603610e6057600b60008281526020019081526020016000206040518060a0016040529081600082015481526020016001820160009054906101000a900473ffffffffffffffffffffffffffffffffffffffff1673ffffffffffffffffffffffffffffffffffffffff1673ffffffffffffffffffffffffffffffffffffffff1681526020016002820160009054906101000a900473ffffffffffffffffffffffffffffffffffffffff1673ffffffffffffffffffffffffffffffffffffffff1673ffffffffffffffffffffffffffffffffffffffff168152602001600382015481526020016004820160009054906101000a900460ff161515151581525050838381518110610e4657610e4561366e565b5b60200260200101819052508180610e5c9061369d565b9250505b8080610e6b9061369d565b915050610cc1565b5081935050505090565b610e8e610e88611ca6565b8261230e565b610ecd576040517f08c379a0000000000000000000000000000000000000000000000000000000008152600401610ec49061379c565b60405180910390fd5b610ed8838383612015565b505050565b610ef88383836040518060200160405280600081525061143e565b505050565b6060600080600190505b610f116007611d67565b8111610fa2573373ffffffffffffffffffffffffffffffffffffffff16600b600083815260200190815260200160002060010160009054906101000a900473ffffffffffffffffffffffffffffffffffffffff1673ffffffffffffffffffffffffffffffffffffffff1603610f8f578180610f8b9061369d565b9250505b8080610f9a9061369d565b915050610f07565b5060008167ffffffffffffffff811115610fbf57610fbe613070565b5b604051908082528060200260200182016040528015610ff857816020015b610fe5612bbb565b815260200190600190039081610fdd5790505b509050600080600190505b61100d6007611d67565b81116111b5573373ffffffffffffffffffffffffffffffffffffffff16600b600083815260200190815260200160002060010160009054906101000a900473ffffffffffffffffffffffffffffffffffffffff1673ffffffffffffffffffffffffffffffffffffffff16036111a257600b60008281526020019081526020016000206040518060a0016040529081600082015481526020016001820160009054906101000a900473ffffffffffffffffffffffffffffffffffffffff1673ffffffffffffffffffffffffffffffffffffffff1673ffffffffffffffffffffffffffffffffffffffff1681526020016002820160009054906101000a900473ffffffffffffffffffffffffffffffffffffffff1673ffffffffffffffffffffffffffffffffffffffff1673ffffffffffffffffffffffffffffffffffffffff168152602001600382015481526020016004820160009054906101000a900460ff1615151515815250508383815181106111885761118761366e565b5b6020026020010181905250818061119e9061369d565b9250505b80806111ad9061369d565b915050611003565b5081935050505090565b6000806111cb836123a3565b9050600073ffffffffffffffffffffffffffffffffffffffff168173ffffffffffffffffffffffffffffffffffffffff160361123c576040517f08c379a000000000000000000000000000000000000000000000000000000000815260040161123390613808565b60405180910390fd5b80915050919050565b60008073ffffffffffffffffffffffffffffffffffffffff168273ffffffffffffffffffffffffffffffffffffffff16036112b5576040517f08c379a00000000000000000000000000000000000000000000000000000000081526004016112ac9061389a565b60405180910390fd5b600360008373ffffffffffffffffffffffffffffffffffffffff1673ffffffffffffffffffffffffffffffffffffffff168152602001908152602001600020549050919050565b60606001805461130b906134b6565b80601f0160208091040260200160405190810160405280929190818152602001828054611337906134b6565b80156113845780601f1061135957610100808354040283529160200191611384565b820191906000526020600020905b81548152906001019060200180831161136757829003601f168201915b5050505050905090565b6113a0611399611ca6565b83836123e0565b5050565b600a60009054906101000a900473ffffffffffffffffffffffffffffffffffffffff1673ffffffffffffffffffffffffffffffffffffffff163373ffffffffffffffffffffffffffffffffffffffff1614611434576040517f08c379a000000000000000000000000000000000000000000000000000000000815260040161142b90613906565b60405180910390fd5b8060098190555050565b61144f611449611ca6565b8361230e565b61148e576040517f08c379a00000000000000000000000000000000000000000000000000000000081526004016114859061379c565b60405180910390fd5b61149a8484848461254c565b50505050565b6000600b6000838152602001908152602001600020905060008160030154116114fe576040517f08c379a00000000000000000000000000000000000000000000000000000000081526004016114f590613972565b60405180910390fd5b600015158160040160009054906101000a900460ff16151514611556576040517f08c379a000000000000000000000000000000000000000000000000000000000815260040161154d906139de565b60405180910390fd5b8060030154341461159c576040517f08c379a000000000000000000000000000000000000000000000000000000000815260040161159390613a4a565b60405180910390fd5b338160020160006101000a81548173ffffffffffffffffffffffffffffffffffffffff021916908373ffffffffffffffffffffffffffffffffffffffff16021790555060018160040160006101000a81548160ff02191690831515021790555060008160010160006101000a81548173ffffffffffffffffffffffffffffffffffffffff021916908373ffffffffffffffffffffffffffffffffffffffff16021790555061164a6008611d75565b611655303384612015565b600a60009054906101000a900473ffffffffffffffffffffffffffffffffffffffff1673ffffffffffffffffffffffffffffffffffffffff166108fc6009549081150290604051600060405180830381858888f193505050501580156116bf573d6000803e3d6000fd5b508060010160009054906101000a900473ffffffffffffffffffffffffffffffffffffffff1673ffffffffffffffffffffffffffffffffffffffff166108fc349081150290604051600060405180830381858888f1935050505015801561172a573d6000803e3d6000fd5b50817f150ffca547cf855e7fcf5daa82e41c6523b5fb2c8b1309bbb6cf2f87c6ae5a318260010160009054906101000a900473ffffffffffffffffffffffffffffffffffffffff1633846003015460405161178793929190613ac9565b60405180910390a280600301543411156118585760003373ffffffffffffffffffffffffffffffffffffffff168260030154346117c4919061363a565b6040516117d090613b31565b60006040518083038185875af1925050503d806000811461180d576040519150601f19603f3d011682016040523d82523d6000602084013e611812565b606091505b5050905080611856576040517f08c379a000000000000000000000000000000000000000000000000000000000815260040161184d90613b92565b60405180910390fd5b505b5050565b606061186782611c5b565b6000600660008481526020019081526020016000208054611887906134b6565b80601f01602080910402602001604051908101604052809291908181526020018280546118b3906134b6565b80156119005780601f106118d557610100808354040283529160200191611900565b820191906000526020600020905b8154815290600101906020018083116118e357829003601f168201915b5050505050905060006119116125a8565b90506000815103611926578192505050611969565b60008251111561195b578082604051602001611943929190613bee565b60405160208183030381529060405292505050611969565b611964846125bf565b925050505b919050565b6000600b600084815260200190815260200160002090503373ffffffffffffffffffffffffffffffffffffffff168160020160009054906101000a900473ffffffffffffffffffffffffffffffffffffffff1673ffffffffffffffffffffffffffffffffffffffff1614611a17576040517f08c379a0000000000000000000000000000000000000000000000000000000008152600401611a0e90613906565b60405180910390fd5b6009543414611a5b576040517f08c379a0000000000000000000000000000000000000000000000000000000008152600401611a5290613c5e565b60405180910390fd5b60008160040160006101000a81548160ff021916908315150217905550818160030181905550338160010160006101000a81548173ffffffffffffffffffffffffffffffffffffffff021916908373ffffffffffffffffffffffffffffffffffffffff160217905550308160020160006101000a81548173ffffffffffffffffffffffffffffffffffffffff021916908373ffffffffffffffffffffffffffffffffffffffff160217905550611b116008612627565b611b1c333085612015565b827f16995a1968784de2858cd75d406b5a07de5c4b1080374551621df9eb5cc3d935333085604051611b5093929190613c7e565b60405180910390a2505050565b6000600560008473ffffffffffffffffffffffffffffffffffffffff1673ffffffffffffffffffffffffffffffffffffffff16815260200190815260200160002060008373ffffffffffffffffffffffffffffffffffffffff1673ffffffffffffffffffffffffffffffffffffffff16815260200190815260200160002060009054906101000a900460ff16905092915050565b60007f01ffc9a7000000000000000000000000000000000000000000000000000000007bffffffffffffffffffffffffffffffffffffffffffffffffffffffff1916827bffffffffffffffffffffffffffffffffffffffffffffffffffffffff1916149050919050565b611c6481612683565b611ca3576040517f08c379a0000000000000000000000000000000000000000000000000000000008152600401611c9a90613808565b60405180910390fd5b50565b600033905090565b816004600083815260200190815260200160002060006101000a81548173ffffffffffffffffffffffffffffffffffffffff021916908373ffffffffffffffffffffffffffffffffffffffff160217905550808273ffffffffffffffffffffffffffffffffffffffff16611d21836111bf565b73ffffffffffffffffffffffffffffffffffffffff167f8c5be1e5ebec7d5bd14f71427d1e84f3dd0314c0f7b2291e5b200ac8c7c3b92560405160405180910390a45050565b600081600001549050919050565b6001816000016000828254019250508190555050565b600073ffffffffffffffffffffffffffffffffffffffff168273ffffffffffffffffffffffffffffffffffffffff1603611dfa576040517f08c379a0000000000000000000000000000000000000000000000000000000008152600401611df190613d01565b60405180910390fd5b611e0381612683565b15611e43576040517f08c379a0000000000000000000000000000000000000000000000000000000008152600401611e3a90613d6d565b60405180910390fd5b611e516000838360016126c4565b611e5a81612683565b15611e9a576040517f08c379a0000000000000000000000000000000000000000000000000000000008152600401611e9190613d6d565b60405180910390fd5b6001600360008473ffffffffffffffffffffffffffffffffffffffff1673ffffffffffffffffffffffffffffffffffffffff16815260200190815260200160002060008282540192505081905550816002600083815260200190815260200160002060006101000a81548173ffffffffffffffffffffffffffffffffffffffff021916908373ffffffffffffffffffffffffffffffffffffffff160217905550808273ffffffffffffffffffffffffffffffffffffffff16600073ffffffffffffffffffffffffffffffffffffffff167fddf252ad1be2c89b69c2b068fc378daa952ba7f163c4a11628f55a4df523b3ef60405160405180910390a4611fa46000838360016127ea565b5050565b611fb182612683565b611ff0576040517f08c379a0000000000000000000000000000000000000000000000000000000008152600401611fe790613dff565b60405180910390fd5b806006600084815260200190815260200160002090816120109190613fc1565b505050565b8273ffffffffffffffffffffffffffffffffffffffff16612035826111bf565b73ffffffffffffffffffffffffffffffffffffffff161461208b576040517f08c379a000000000000000000000000000000000000000000000000000000000815260040161208290614105565b60405180910390fd5b600073ffffffffffffffffffffffffffffffffffffffff168273ffffffffffffffffffffffffffffffffffffffff16036120fa576040517f08c379a00000000000000000000000000000000000000000000000000000000081526004016120f190614197565b60405180910390fd5b61210783838360016126c4565b8273ffffffffffffffffffffffffffffffffffffffff16612127826111bf565b73ffffffffffffffffffffffffffffffffffffffff161461217d576040517f08c379a000000000000000000000000000000000000000000000000000000000815260040161217490614105565b60405180910390fd5b6004600082815260200190815260200160002060006101000a81549073ffffffffffffffffffffffffffffffffffffffff02191690556001600360008573ffffffffffffffffffffffffffffffffffffffff1673ffffffffffffffffffffffffffffffffffffffff168152602001908152602001600020600082825403925050819055506001600360008473ffffffffffffffffffffffffffffffffffffffff1673ffffffffffffffffffffffffffffffffffffffff16815260200190815260200160002060008282540192505081905550816002600083815260200190815260200160002060006101000a81548173ffffffffffffffffffffffffffffffffffffffff021916908373ffffffffffffffffffffffffffffffffffffffff160217905550808273ffffffffffffffffffffffffffffffffffffffff168473ffffffffffffffffffffffffffffffffffffffff167fddf252ad1be2c89b69c2b068fc378daa952ba7f163c4a11628f55a4df523b3ef60405160405180910390a461230983838360016127ea565b505050565b60008061231a836111bf565b90508073ffffffffffffffffffffffffffffffffffffffff168473ffffffffffffffffffffffffffffffffffffffff16148061235c575061235b8185611b5d565b5b8061239a57508373ffffffffffffffffffffffffffffffffffffffff1661238284610664565b73ffffffffffffffffffffffffffffffffffffffff16145b91505092915050565b60006002600083815260200190815260200160002060009054906101000a900473ffffffffffffffffffffffffffffffffffffffff169050919050565b8173ffffffffffffffffffffffffffffffffffffffff168373ffffffffffffffffffffffffffffffffffffffff160361244e576040517f08c379a000000000000000000000000000000000000000000000000000000000815260040161244590614203565b60405180910390fd5b80600560008573ffffffffffffffffffffffffffffffffffffffff1673ffffffffffffffffffffffffffffffffffffffff16815260200190815260200160002060008473ffffffffffffffffffffffffffffffffffffffff1673ffffffffffffffffffffffffffffffffffffffff16815260200190815260200160002060006101000a81548160ff0219169083151502179055508173ffffffffffffffffffffffffffffffffffffffff168373ffffffffffffffffffffffffffffffffffffffff167f17307eab39ab6107e8899845ad3d59bd9653f200f220920489ca2b5937696c318360405161253f9190612ccc565b60405180910390a3505050565b612557848484612015565b612563848484846127f0565b6125a2576040517f08c379a000000000000000000000000000000000000000000000000000000000815260040161259990614295565b60405180910390fd5b50505050565b606060405180602001604052806000815250905090565b60606125ca82611c5b565b60006125d46125a8565b905060008151116125f4576040518060200160405280600081525061261f565b806125fe84612977565b60405160200161260f929190613bee565b6040516020818303038152906040525b915050919050565b60008160000154905060008111612673576040517f08c379a000000000000000000000000000000000000000000000000000000000815260040161266a90614301565b60405180910390fd5b6001810382600001819055505050565b60008073ffffffffffffffffffffffffffffffffffffffff166126a5836123a3565b73ffffffffffffffffffffffffffffffffffffffff1614159050919050565b60018111156127e457600073ffffffffffffffffffffffffffffffffffffffff168473ffffffffffffffffffffffffffffffffffffffff16146127585780600360008673ffffffffffffffffffffffffffffffffffffffff1673ffffffffffffffffffffffffffffffffffffffff1681526020019081526020016000206000828254612750919061363a565b925050819055505b600073ffffffffffffffffffffffffffffffffffffffff168373ffffffffffffffffffffffffffffffffffffffff16146127e35780600360008573ffffffffffffffffffffffffffffffffffffffff1673ffffffffffffffffffffffffffffffffffffffff16815260200190815260200160002060008282546127db9190614321565b925050819055505b5b50505050565b50505050565b60006128118473ffffffffffffffffffffffffffffffffffffffff16612a45565b1561296a578373ffffffffffffffffffffffffffffffffffffffff1663150b7a0261283a611ca6565b8786866040518563ffffffff1660e01b815260040161285c94939291906143aa565b6020604051808303816000875af192505050801561289857506040513d601f19601f82011682018060405250810190612895919061440b565b60015b61291a573d80600081146128c8576040519150601f19603f3d011682016040523d82523d6000602084013e6128cd565b606091505b506000815103612912576040517f08c379a000000000000000000000000000000000000000000000000000000000815260040161290990614295565b60405180910390fd5b805181602001fd5b63150b7a0260e01b7bffffffffffffffffffffffffffffffffffffffffffffffffffffffff1916817bffffffffffffffffffffffffffffffffffffffffffffffffffffffff19161491505061296f565b600190505b949350505050565b60606000600161298684612a68565b01905060008167ffffffffffffffff8111156129a5576129a4613070565b5b6040519080825280601f01601f1916602001820160405280156129d75781602001600182028036833780820191505090505b509050600082602001820190505b600115612a3a578080600190039150507f3031323334353637383961626364656600000000000000000000000000000000600a86061a8153600a8581612a2e57612a2d614438565b5b049450600085036129e5575b819350505050919050565b6000808273ffffffffffffffffffffffffffffffffffffffff163b119050919050565b600080600090507a184f03e93ff9f4daa797ed6e38ed64bf6a1f0100000000000000008310612ac6577a184f03e93ff9f4daa797ed6e38ed64bf6a1f0100000000000000008381612abc57612abb614438565b5b0492506040810190505b6d04ee2d6d415b85acef81000000008310612b03576d04ee2d6d415b85acef81000000008381612af957612af8614438565b5b0492506020810190505b662386f26fc100008310612b3257662386f26fc100008381612b2857612b27614438565b5b0492506010810190505b6305f5e1008310612b5b576305f5e1008381612b5157612b50614438565b5b0492506008810190505b6127108310612b80576127108381612b7657612b75614438565b5b0492506004810190505b60648310612ba35760648381612b9957612b98614438565b5b0492506002810190505b600a8310612bb2576001810190505b80915050919050565b6040518060a0016040528060008152602001600073ffffffffffffffffffffffffffffffffffffffff168152602001600073ffffffffffffffffffffffffffffffffffffffff168152602001600081526020016000151581525090565b6000604051905090565b600080fd5b600080fd5b60007fffffffff0000000000000000000000000000000000000000000000000000000082169050919050565b612c6181612c2c565b8114612c6c57600080fd5b50565b600081359050612c7e81612c58565b92915050565b600060208284031215612c9a57612c99612c22565b5b6000612ca884828501612c6f565b91505092915050565b60008115159050919050565b612cc681612cb1565b82525050565b6000602082019050612ce16000830184612cbd565b92915050565b600081519050919050565b600082825260208201905092915050565b60005b83811015612d21578082015181840152602081019050612d06565b60008484015250505050565b6000601f19601f8301169050919050565b6000612d4982612ce7565b612d538185612cf2565b9350612d63818560208601612d03565b612d6c81612d2d565b840191505092915050565b60006020820190508181036000830152612d918184612d3e565b905092915050565b6000819050919050565b612dac81612d99565b8114612db757600080fd5b50565b600081359050612dc981612da3565b92915050565b600060208284031215612de557612de4612c22565b5b6000612df384828501612dba565b91505092915050565b600073ffffffffffffffffffffffffffffffffffffffff82169050919050565b6000612e2782612dfc565b9050919050565b612e3781612e1c565b82525050565b6000602082019050612e526000830184612e2e565b92915050565b612e6181612e1c565b8114612e6c57600080fd5b50565b600081359050612e7e81612e58565b92915050565b60008060408385031215612e9b57612e9a612c22565b5b6000612ea985828601612e6f565b9250506020612eba85828601612dba565b9150509250929050565b600081519050919050565b600082825260208201905092915050565b6000819050602082019050919050565b612ef981612d99565b82525050565b6000612f0a82612dfc565b9050919050565b612f1a81612eff565b82525050565b612f2981612cb1565b82525050565b60a082016000820151612f456000850182612ef0565b506020820151612f586020850182612f11565b506040820151612f6b6040850182612f11565b506060820151612f7e6060850182612ef0565b506080820151612f916080850182612f20565b50505050565b6000612fa38383612f2f565b60a08301905092915050565b6000602082019050919050565b6000612fc782612ec4565b612fd18185612ecf565b9350612fdc83612ee0565b8060005b8381101561300d578151612ff48882612f97565b9750612fff83612faf565b925050600181019050612fe0565b5085935050505092915050565b600060208201905081810360008301526130348184612fbc565b905092915050565b61304581612d99565b82525050565b6000602082019050613060600083018461303c565b92915050565b600080fd5b600080fd5b7f4e487b7100000000000000000000000000000000000000000000000000000000600052604160045260246000fd5b6130a882612d2d565b810181811067ffffffffffffffff821117156130c7576130c6613070565b5b80604052505050565b60006130da612c18565b90506130e6828261309f565b919050565b600067ffffffffffffffff82111561310657613105613070565b5b61310f82612d2d565b9050602081019050919050565b82818337600083830152505050565b600061313e613139846130eb565b6130d0565b90508281526020810184848401111561315a5761315961306b565b5b61316584828561311c565b509392505050565b600082601f83011261318257613181613066565b5b813561319284826020860161312b565b91505092915050565b600080604083850312156131b2576131b1612c22565b5b600083013567ffffffffffffffff8111156131d0576131cf612c27565b5b6131dc8582860161316d565b92505060206131ed85828601612dba565b9150509250929050565b6000806000606084860312156132105761320f612c22565b5b600061321e86828701612e6f565b935050602061322f86828701612e6f565b925050604061324086828701612dba565b9150509250925092565b6000602082840312156132605761325f612c22565b5b600061326e84828501612e6f565b91505092915050565b61328081612cb1565b811461328b57600080fd5b50565b60008135905061329d81613277565b92915050565b600080604083850312156132ba576132b9612c22565b5b60006132c885828601612e6f565b92505060206132d98582860161328e565b9150509250929050565b600067ffffffffffffffff8211156132fe576132fd613070565b5b61330782612d2d565b9050602081019050919050565b6000613327613322846132e3565b6130d0565b9050828152602081018484840111156133435761334261306b565b5b61334e84828561311c565b509392505050565b600082601f83011261336b5761336a613066565b5b813561337b848260208601613314565b91505092915050565b6000806000806080858703121561339e5761339d612c22565b5b60006133ac87828801612e6f565b94505060206133bd87828801612e6f565b93505060406133ce87828801612dba565b925050606085013567ffffffffffffffff8111156133ef576133ee612c27565b5b6133fb87828801613356565b91505092959194509250565b6000806040838503121561341e5761341d612c22565b5b600061342c85828601612dba565b925050602061343d85828601612dba565b9150509250929050565b6000806040838503121561345e5761345d612c22565b5b600061346c85828601612e6f565b925050602061347d85828601612e6f565b9150509250929050565b7f4e487b7100000000000000000000000000000000000000000000000000000000600052602260045260246000fd5b600060028204905060018216806134ce57607f821691505b6020821081036134e1576134e0613487565b5b50919050565b7f4552433732313a20617070726f76616c20746f2063757272656e74206f776e6560008201527f7200000000000000000000000000000000000000000000000000000000000000602082015250565b6000613543602183612cf2565b915061354e826134e7565b604082019050919050565b6000602082019050818103600083015261357281613536565b9050919050565b7f4552433732313a20617070726f76652063616c6c6572206973206e6f7420746f60008201527f6b656e206f776e6572206f7220617070726f76656420666f7220616c6c000000602082015250565b60006135d5603d83612cf2565b91506135e082613579565b604082019050919050565b60006020820190508181036000830152613604816135c8565b9050919050565b7f4e487b7100000000000000000000000000000000000000000000000000000000600052601160045260246000fd5b600061364582612d99565b915061365083612d99565b92508282039050818111156136685761366761360b565b5b92915050565b7f4e487b7100000000000000000000000000000000000000000000000000000000600052603260045260246000fd5b60006136a882612d99565b91507fffffffffffffffffffffffffffffffffffffffffffffffffffffffffffffffff82036136da576136d961360b565b5b600182019050919050565b60006080820190506136fa6000830187612e2e565b6137076020830186612e2e565b613714604083018561303c565b6137216060830184612cbd565b95945050505050565b7f4552433732313a2063616c6c6572206973206e6f7420746f6b656e206f776e6560008201527f72206f7220617070726f76656400000000000000000000000000000000000000602082015250565b6000613786602d83612cf2565b91506137918261372a565b604082019050919050565b600060208201905081810360008301526137b581613779565b9050919050565b7f4552433732313a20696e76616c696420746f6b656e2049440000000000000000600082015250565b60006137f2601883612cf2565b91506137fd826137bc565b602082019050919050565b60006020820190508181036000830152613821816137e5565b9050919050565b7f4552433732313a2061646472657373207a65726f206973206e6f74206120766160008201527f6c6964206f776e65720000000000000000000000000000000000000000000000602082015250565b6000613884602983612cf2565b915061388f82613828565b604082019050919050565b600060208201905081810360008301526138b381613877565b9050919050565b7f4e6f7420617574686f72697a6564000000000000000000000000000000000000600082015250565b60006138f0600e83612cf2565b91506138fb826138ba565b602082019050919050565b6000602082019050818103600083015261391f816138e3565b9050919050565b7f496e76616c696420707269636500000000000000000000000000000000000000600082015250565b600061395c600d83612cf2565b915061396782613926565b602082019050919050565b6000602082019050818103600083015261398b8161394f565b9050919050565b7f416c726561647920736f6c640000000000000000000000000000000000000000600082015250565b60006139c8600c83612cf2565b91506139d382613992565b602082019050919050565b600060208201905081810360008301526139f7816139bb565b9050919050565b7f496e76616c696420616d6f756e74000000000000000000000000000000000000600082015250565b6000613a34600e83612cf2565b9150613a3f826139fe565b602082019050919050565b60006020820190508181036000830152613a6381613a27565b9050919050565b6000819050919050565b6000613a8f613a8a613a8584612dfc565b613a6a565b612dfc565b9050919050565b6000613aa182613a74565b9050919050565b6000613ab382613a96565b9050919050565b613ac381613aa8565b82525050565b6000606082019050613ade6000830186613aba565b613aeb6020830185612e2e565b613af8604083018461303c565b949350505050565b600081905092915050565b50565b6000613b1b600083613b00565b9150613b2682613b0b565b600082019050919050565b6000613b3c82613b0e565b9150819050919050565b7f526566756e64206661696c656400000000000000000000000000000000000000600082015250565b6000613b7c600d83612cf2565b9150613b8782613b46565b602082019050919050565b60006020820190508181036000830152613bab81613b6f565b9050919050565b600081905092915050565b6000613bc882612ce7565b613bd28185613bb2565b9350613be2818560208601612d03565b80840191505092915050565b6000613bfa8285613bbd565b9150613c068284613bbd565b91508190509392505050565b7f496e76616c6964206c697374696e672070726963650000000000000000000000600082015250565b6000613c48601583612cf2565b9150613c5382613c12565b602082019050919050565b60006020820190508181036000830152613c7781613c3b565b9050919050565b6000606082019050613c936000830186612e2e565b613ca06020830185612e2e565b613cad604083018461303c565b949350505050565b7f4552433732313a206d696e7420746f20746865207a65726f2061646472657373600082015250565b6000613ceb602083612cf2565b9150613cf682613cb5565b602082019050919050565b60006020820190508181036000830152613d1a81613cde565b9050919050565b7f4552433732313a20746f6b656e20616c7265616479206d696e74656400000000600082015250565b6000613d57601c83612cf2565b9150613d6282613d21565b602082019050919050565b60006020820190508181036000830152613d8681613d4a565b9050919050565b7f45524337323155524953746f726167653a2055524920736574206f66206e6f6e60008201527f6578697374656e7420746f6b656e000000000000000000000000000000000000602082015250565b6000613de9602e83612cf2565b9150613df482613d8d565b604082019050919050565b60006020820190508181036000830152613e1881613ddc565b9050919050565b60008190508160005260206000209050919050565b60006020601f8301049050919050565b600082821b905092915050565b600060088302613e817fffffffffffffffffffffffffffffffffffffffffffffffffffffffffffffffff82613e44565b613e8b8683613e44565b95508019841693508086168417925050509392505050565b6000613ebe613eb9613eb484612d99565b613a6a565b612d99565b9050919050565b6000819050919050565b613ed883613ea3565b613eec613ee482613ec5565b848454613e51565b825550505050565b600090565b613f01613ef4565b613f0c818484613ecf565b505050565b5b81811015613f3057613f25600082613ef9565b600181019050613f12565b5050565b601f821115613f7557613f4681613e1f565b613f4f84613e34565b81016020851015613f5e578190505b613f72613f6a85613e34565b830182613f11565b50505b505050565b600082821c905092915050565b6000613f9860001984600802613f7a565b1980831691505092915050565b6000613fb18383613f87565b9150826002028217905092915050565b613fca82612ce7565b67ffffffffffffffff811115613fe357613fe2613070565b5b613fed82546134b6565b613ff8828285613f34565b600060209050601f83116001811461402b5760008415614019578287015190505b6140238582613fa5565b86555061408b565b601f19841661403986613e1f565b60005b828110156140615784890151825560018201915060208501945060208101905061403c565b8683101561407e578489015161407a601f891682613f87565b8355505b6001600288020188555050505b505050505050565b7f4552433732313a207472616e736665722066726f6d20696e636f72726563742060008201527f6f776e6572000000000000000000000000000000000000000000000000000000602082015250565b60006140ef602583612cf2565b91506140fa82614093565b604082019050919050565b6000602082019050818103600083015261411e816140e2565b9050919050565b7f4552433732313a207472616e7366657220746f20746865207a65726f2061646460008201527f7265737300000000000000000000000000000000000000000000000000000000602082015250565b6000614181602483612cf2565b915061418c82614125565b604082019050919050565b600060208201905081810360008301526141b081614174565b9050919050565b7f4552433732313a20617070726f766520746f2063616c6c657200000000000000600082015250565b60006141ed601983612cf2565b91506141f8826141b7565b602082019050919050565b6000602082019050818103600083015261421c816141e0565b9050919050565b7f4552433732313a207472616e7366657220746f206e6f6e20455243373231526560008201527f63656976657220696d706c656d656e7465720000000000000000000000000000602082015250565b600061427f603283612cf2565b915061428a82614223565b604082019050919050565b600060208201905081810360008301526142ae81614272565b9050919050565b7f436f756e7465723a2064656372656d656e74206f766572666c6f770000000000600082015250565b60006142eb601b83612cf2565b91506142f6826142b5565b602082019050919050565b6000602082019050818103600083015261431a816142de565b9050919050565b600061432c82612d99565b915061433783612d99565b925082820190508082111561434f5761434e61360b565b5b92915050565b600081519050919050565b600082825260208201905092915050565b600061437c82614355565b6143868185614360565b9350614396818560208601612d03565b61439f81612d2d565b840191505092915050565b60006080820190506143bf6000830187612e2e565b6143cc6020830186612e2e565b6143d9604083018561303c565b81810360608301526143eb8184614371565b905095945050505050565b60008151905061440581612c58565b92915050565b60006020828403121561442157614420612c22565b5b600061442f848285016143f6565b91505092915050565b7f4e487b7100000000000000000000000000000000000000000000000000000000600052601260045260246000fdfea264697066735822122055d0bc3343f026e2b3d894f20ece03e6a4047d333d6d00fae0105c3d5719f09464736f6c63430008110033",
  "linkReferences": {},
  "deployedLinkReferences": {}
}